{
  "_format": "hh-sol-artifact-1",
  "contractName": "Treasury",
  "sourceName": "contracts/Treasury.sol",
  "abi": [
    {
      "inputs": [],
      "stateMutability": "nonpayable",
      "type": "constructor"
    },
    {
      "inputs": [
        {
          "internalType": "uint256",
          "name": "amount",
          "type": "uint256"
        }
      ],
      "name": "deposit",
      "outputs": [],
      "stateMutability": "nonpayable",
      "type": "function"
    },
    {
      "inputs": [],
      "name": "ideaToken",
      "outputs": [
        {
          "internalType": "contract IdeaToken",
          "name": "",
          "type": "address"
        }
      ],
      "stateMutability": "view",
      "type": "function"
    },
    {
      "inputs": [],
      "name": "owner",
      "outputs": [
        {
          "internalType": "address",
          "name": "",
          "type": "address"
        }
      ],
      "stateMutability": "view",
      "type": "function"
    },
    {
      "inputs": [
        {
          "internalType": "contract IdeaToken",
          "name": "_ideaToken",
          "type": "address"
        }
      ],
      "name": "setToken",
      "outputs": [],
      "stateMutability": "nonpayable",
      "type": "function"
    },
    {
      "inputs": [
        {
          "internalType": "uint256",
          "name": "amount",
          "type": "uint256"
        },
        {
          "internalType": "address",
          "name": "destination",
          "type": "address"
        }
      ],
      "name": "withdraw",
      "outputs": [],
      "stateMutability": "nonpayable",
      "type": "function"
    }
  ],
  "bytecode": "0x608060405234801561001057600080fd5b5033600160006101000a81548173ffffffffffffffffffffffffffffffffffffffff021916908373ffffffffffffffffffffffffffffffffffffffff160217905550610be6806100616000396000f3fe608060405234801561001057600080fd5b50600436106100565760003560e01c8062f714ce1461005b5780630161fe3214610077578063144fa6d7146100955780638da5cb5b146100b1578063b6b55f25146100cf575b600080fd5b610075600480360381019061007091906106a1565b6100eb565b005b61007f6102eb565b60405161008c9190610740565b60405180910390f35b6100af60048036038101906100aa9190610799565b61030f565b005b6100b9610471565b6040516100c691906107d5565b60405180910390f35b6100e960048036038101906100e491906107f0565b610497565b005b600073ffffffffffffffffffffffffffffffffffffffff1660008054906101000a900473ffffffffffffffffffffffffffffffffffffffff1673ffffffffffffffffffffffffffffffffffffffff160361017a576040517f08c379a00000000000000000000000000000000000000000000000000000000081526004016101719061087a565b60405180910390fd5b600160009054906101000a900473ffffffffffffffffffffffffffffffffffffffff1673ffffffffffffffffffffffffffffffffffffffff163373ffffffffffffffffffffffffffffffffffffffff161461020a576040517f08c379a00000000000000000000000000000000000000000000000000000000081526004016102019061090c565b60405180910390fd5b60008054906101000a900473ffffffffffffffffffffffffffffffffffffffff1673ffffffffffffffffffffffffffffffffffffffff1663a9059cbb82846040518363ffffffff1660e01b815260040161026592919061093b565b6020604051808303816000875af1158015610284573d6000803e3d6000fd5b505050506040513d601f19601f820116820180604052508101906102a8919061099c565b6102e7576040517f08c379a00000000000000000000000000000000000000000000000000000000081526004016102de90610a15565b60405180910390fd5b5050565b60008054906101000a900473ffffffffffffffffffffffffffffffffffffffff1681565b600160009054906101000a900473ffffffffffffffffffffffffffffffffffffffff1673ffffffffffffffffffffffffffffffffffffffff163373ffffffffffffffffffffffffffffffffffffffff161461039f576040517f08c379a000000000000000000000000000000000000000000000000000000000815260040161039690610a81565b60405180910390fd5b600073ffffffffffffffffffffffffffffffffffffffff1660008054906101000a900473ffffffffffffffffffffffffffffffffffffffff1673ffffffffffffffffffffffffffffffffffffffff161461042e576040517f08c379a000000000000000000000000000000000000000000000000000000000815260040161042590610aed565b60405180910390fd5b806000806101000a81548173ffffffffffffffffffffffffffffffffffffffff021916908373ffffffffffffffffffffffffffffffffffffffff16021790555050565b600160009054906101000a900473ffffffffffffffffffffffffffffffffffffffff1681565b600073ffffffffffffffffffffffffffffffffffffffff1660008054906101000a900473ffffffffffffffffffffffffffffffffffffffff1673ffffffffffffffffffffffffffffffffffffffff1603610526576040517f08c379a000000000000000000000000000000000000000000000000000000000815260040161051d9061087a565b60405180910390fd5b60008054906101000a900473ffffffffffffffffffffffffffffffffffffffff1673ffffffffffffffffffffffffffffffffffffffff166323b872dd3330846040518463ffffffff1660e01b815260040161058393929190610b0d565b6020604051808303816000875af11580156105a2573d6000803e3d6000fd5b505050506040513d601f19601f820116820180604052508101906105c6919061099c565b610605576040517f08c379a00000000000000000000000000000000000000000000000000000000081526004016105fc90610b90565b60405180910390fd5b50565b600080fd5b6000819050919050565b6106208161060d565b811461062b57600080fd5b50565b60008135905061063d81610617565b92915050565b600073ffffffffffffffffffffffffffffffffffffffff82169050919050565b600061066e82610643565b9050919050565b61067e81610663565b811461068957600080fd5b50565b60008135905061069b81610675565b92915050565b600080604083850312156106b8576106b7610608565b5b60006106c68582860161062e565b92505060206106d78582860161068c565b9150509250929050565b6000819050919050565b60006107066107016106fc84610643565b6106e1565b610643565b9050919050565b6000610718826106eb565b9050919050565b600061072a8261070d565b9050919050565b61073a8161071f565b82525050565b60006020820190506107556000830184610731565b92915050565b600061076682610663565b9050919050565b6107768161075b565b811461078157600080fd5b50565b6000813590506107938161076d565b92915050565b6000602082840312156107af576107ae610608565b5b60006107bd84828501610784565b91505092915050565b6107cf81610663565b82525050565b60006020820190506107ea60008301846107c6565b92915050565b60006020828403121561080657610805610608565b5b60006108148482850161062e565b91505092915050565b600082825260208201905092915050565b7f546f6b656e206e6f742073657400000000000000000000000000000000000000600082015250565b6000610864600d8361081d565b915061086f8261082e565b602082019050919050565b6000602082019050818103600083015261089381610857565b9050919050565b7f54726561737572793a206f6e6c79206f776e65722063616e207769746864726160008201527f7700000000000000000000000000000000000000000000000000000000000000602082015250565b60006108f660218361081d565b91506109018261089a565b604082019050919050565b60006020820190508181036000830152610925816108e9565b9050919050565b6109358161060d565b82525050565b600060408201905061095060008301856107c6565b61095d602083018461092c565b9392505050565b60008115159050919050565b61097981610964565b811461098457600080fd5b50565b60008151905061099681610970565b92915050565b6000602082840312156109b2576109b1610608565b5b60006109c084828501610987565b91505092915050565b7f54726561737572793a207769746864726177616c206661696c65640000000000600082015250565b60006109ff601b8361081d565b9150610a0a826109c9565b602082019050919050565b60006020820190508181036000830152610a2e816109f2565b9050919050565b7f4f6e6c79206f776e65722063616e2073657420746f6b656e0000000000000000600082015250565b6000610a6b60188361081d565b9150610a7682610a35565b602082019050919050565b60006020820190508181036000830152610a9a81610a5e565b9050919050565b7f546f6b656e20616c726561647920736574000000000000000000000000000000600082015250565b6000610ad760118361081d565b9150610ae282610aa1565b602082019050919050565b60006020820190508181036000830152610b0681610aca565b9050919050565b6000606082019050610b2260008301866107c6565b610b2f60208301856107c6565b610b3c604083018461092c565b949350505050565b7f54726561737572793a206465706f736974206661696c65640000000000000000600082015250565b6000610b7a60188361081d565b9150610b8582610b44565b602082019050919050565b60006020820190508181036000830152610ba981610b6d565b905091905056fea26469706673582212206a30d1c48a83bb2dcbc89bc9fe48575aefe927bdc7f6a9bc146c73bd24880cfc64736f6c63430008140033",
  "linkReferences": {},
  "deployedLinkReferences": {}
}