{
    "_format": "hh-sol-artifact-1",
    "contractName": "HelloWorld",
    "sourceName": "contracts/HelloWorld.sol",
    "abi": [
        {
            "inputs": [],
            "stateMutability": "nonpayable",
            "type": "constructor"
        },
        {
            "inputs": [
                {
                    "internalType": "address",
                    "name": "spender",
                    "type": "address"
                },
                {
                    "internalType": "uint256",
                    "name": "allowance",
                    "type": "uint256"
                },
                {
                    "internalType": "uint256",
                    "name": "needed",
                    "type": "uint256"
                }
            ],
            "name": "ERC20InsufficientAllowance",
            "type": "error"
        },
        {
            "inputs": [
                {
                    "internalType": "address",
                    "name": "sender",
                    "type": "address"
                },
                {
                    "internalType": "uint256",
                    "name": "balance",
                    "type": "uint256"
                },
                {
                    "internalType": "uint256",
                    "name": "needed",
                    "type": "uint256"
                }
            ],
            "name": "ERC20InsufficientBalance",
            "type": "error"
        },
        {
            "inputs": [
                {
                    "internalType": "address",
                    "name": "approver",
                    "type": "address"
                }
            ],
            "name": "ERC20InvalidApprover",
            "type": "error"
        },
        {
            "inputs": [
                {
                    "internalType": "address",
                    "name": "receiver",
                    "type": "address"
                }
            ],
            "name": "ERC20InvalidReceiver",
            "type": "error"
        },
        {
            "inputs": [
                {
                    "internalType": "address",
                    "name": "sender",
                    "type": "address"
                }
            ],
            "name": "ERC20InvalidSender",
            "type": "error"
        },
        {
            "inputs": [
                {
                    "internalType": "address",
                    "name": "spender",
                    "type": "address"
                }
            ],
            "name": "ERC20InvalidSpender",
            "type": "error"
        },
        {
            "anonymous": false,
            "inputs": [
                {
                    "indexed": true,
                    "internalType": "address",
                    "name": "owner",
                    "type": "address"
                },
                {
                    "indexed": true,
                    "internalType": "address",
                    "name": "spender",
                    "type": "address"
                },
                {
                    "indexed": false,
                    "internalType": "uint256",
                    "name": "value",
                    "type": "uint256"
                }
            ],
            "name": "Approval",
            "type": "event"
        },
        {
            "anonymous": false,
            "inputs": [
                {
                    "indexed": false,
                    "internalType": "string",
                    "name": "message",
                    "type": "string"
                },
                {
                    "indexed": false,
                    "internalType": "uint256",
                    "name": "timestamp",
                    "type": "uint256"
                },
                {
                    "indexed": true,
                    "internalType": "address",
                    "name": "sender",
                    "type": "address"
                }
            ],
            "name": "MessageSubmitted",
            "type": "event"
        },
        {
            "anonymous": false,
            "inputs": [
                {
                    "indexed": true,
                    "internalType": "address",
                    "name": "from",
                    "type": "address"
                },
                {
                    "indexed": true,
                    "internalType": "address",
                    "name": "to",
                    "type": "address"
                },
                {
                    "indexed": false,
                    "internalType": "uint256",
                    "name": "value",
                    "type": "uint256"
                }
            ],
            "name": "Transfer",
            "type": "event"
        },
        {
            "inputs": [],
            "name": "allotTokens",
            "outputs": [],
            "stateMutability": "nonpayable",
            "type": "function"
        },
        {
            "inputs": [
                {
                    "internalType": "address",
                    "name": "owner",
                    "type": "address"
                },
                {
                    "internalType": "address",
                    "name": "spender",
                    "type": "address"
                }
            ],
            "name": "allowance",
            "outputs": [
                {
                    "internalType": "uint256",
                    "name": "",
                    "type": "uint256"
                }
            ],
            "stateMutability": "view",
            "type": "function"
        },
        {
            "inputs": [
                {
                    "internalType": "address",
                    "name": "spender",
                    "type": "address"
                },
                {
                    "internalType": "uint256",
                    "name": "value",
                    "type": "uint256"
                }
            ],
            "name": "approve",
            "outputs": [
                {
                    "internalType": "bool",
                    "name": "",
                    "type": "bool"
                }
            ],
            "stateMutability": "nonpayable",
            "type": "function"
        },
        {
            "inputs": [
                {
                    "internalType": "address",
                    "name": "account",
                    "type": "address"
                }
            ],
            "name": "balanceOf",
            "outputs": [
                {
                    "internalType": "uint256",
                    "name": "",
                    "type": "uint256"
                }
            ],
            "stateMutability": "view",
            "type": "function"
        },
        {
            "inputs": [],
            "name": "decimals",
            "outputs": [
                {
                    "internalType": "uint8",
                    "name": "",
                    "type": "uint8"
                }
            ],
            "stateMutability": "view",
            "type": "function"
        },
        {
            "inputs": [],
            "name": "getLatestMessage",
            "outputs": [
                {
                    "internalType": "string",
                    "name": "",
                    "type": "string"
                }
            ],
            "stateMutability": "view",
            "type": "function"
        },
        {
            "inputs": [
                {
                    "internalType": "uint256",
                    "name": "",
                    "type": "uint256"
                }
            ],
            "name": "messages",
            "outputs": [
                {
                    "internalType": "string",
                    "name": "",
                    "type": "string"
                }
            ],
            "stateMutability": "view",
            "type": "function"
        },
        {
            "inputs": [],
            "name": "name",
            "outputs": [
                {
                    "internalType": "string",
                    "name": "",
                    "type": "string"
                }
            ],
            "stateMutability": "view",
            "type": "function"
        },
        {
            "inputs": [
                {
                    "internalType": "string",
                    "name": "_message",
                    "type": "string"
                }
            ],
            "name": "submitMessage",
            "outputs": [],
            "stateMutability": "nonpayable",
            "type": "function"
        },
        {
            "inputs": [],
            "name": "symbol",
            "outputs": [
                {
                    "internalType": "string",
                    "name": "",
                    "type": "string"
                }
            ],
            "stateMutability": "view",
            "type": "function"
        },
        {
            "inputs": [],
            "name": "totalSupply",
            "outputs": [
                {
                    "internalType": "uint256",
                    "name": "",
                    "type": "uint256"
                }
            ],
            "stateMutability": "view",
            "type": "function"
        },
        {
            "inputs": [
                {
                    "internalType": "address",
                    "name": "to",
                    "type": "address"
                },
                {
                    "internalType": "uint256",
                    "name": "value",
                    "type": "uint256"
                }
            ],
            "name": "transfer",
            "outputs": [
                {
                    "internalType": "bool",
                    "name": "",
                    "type": "bool"
                }
            ],
            "stateMutability": "nonpayable",
            "type": "function"
        },
        {
            "inputs": [
                {
                    "internalType": "address",
                    "name": "from",
                    "type": "address"
                },
                {
                    "internalType": "address",
                    "name": "to",
                    "type": "address"
                },
                {
                    "internalType": "uint256",
                    "name": "value",
                    "type": "uint256"
                }
            ],
            "name": "transferFrom",
            "outputs": [
                {
                    "internalType": "bool",
                    "name": "",
                    "type": "bool"
                }
            ],
            "stateMutability": "nonpayable",
            "type": "function"
        }
    ],
    "bytecode": "0x608060405234801561001057600080fd5b506040518060400160405280600a81526020017f48656c6c6f576f726c64000000000000000000000000000000000000000000008152506040518060400160405280600381526020017f484c570000000000000000000000000000000000000000000000000000000000815250816003908161008c91906102f4565b50806004908161009c91906102f4565b5050506103c6565b600081519050919050565b7f4e487b7100000000000000000000000000000000000000000000000000000000600052604160045260246000fd5b7f4e487b7100000000000000000000000000000000000000000000000000000000600052602260045260246000fd5b6000600282049050600182168061012557607f821691505b602082108103610138576101376100de565b5b50919050565b60008190508160005260206000209050919050565b60006020601f8301049050919050565b600082821b905092915050565b6000600883026101a07fffffffffffffffffffffffffffffffffffffffffffffffffffffffffffffffff82610163565b6101aa8683610163565b95508019841693508086168417925050509392505050565b6000819050919050565b6000819050919050565b60006101f16101ec6101e7846101c2565b6101cc565b6101c2565b9050919050565b6000819050919050565b61020b836101d6565b61021f610217826101f8565b848454610170565b825550505050565b600090565b610234610227565b61023f818484610202565b505050565b5b818110156102635761025860008261022c565b600181019050610245565b5050565b601f8211156102a8576102798161013e565b61028284610153565b81016020851015610291578190505b6102a561029d85610153565b830182610244565b50505b505050565b600082821c905092915050565b60006102cb600019846008026102ad565b1980831691505092915050565b60006102e483836102ba565b9150826002028217905092915050565b6102fd826100a4565b67ffffffffffffffff811115610316576103156100af565b5b610320825461010d565b61032b828285610267565b600060209050601f83116001811461035e576000841561034c578287015190505b61035685826102d8565b8655506103be565b601f19841661036c8661013e565b60005b828110156103945784890151825560018201915060208501945060208101905061036f565b868310156103b157848901516103ad601f8916826102ba565b8355505b6001600288020188555050505b505050505050565b611894806103d56000396000f3fe608060405234801561001057600080fd5b50600436106100cf5760003560e01c8063313ce5671161008c57806395d89b411161006657806395d89b4114610214578063a9059cbb14610232578063dd62ed3e14610262578063fdd2732e14610292576100cf565b8063313ce567146101aa578063708b34fe146101c857806370a08231146101e4576100cf565b806306fdde03146100d4578063095ea7b3146100f25780630d80fefd1461012257806318160ddd146101525780631a7e99261461017057806323b872dd1461017a575b600080fd5b6100dc6102b0565b6040516100e99190610e51565b60405180910390f35b61010c60048036038101906101079190610f11565b610342565b6040516101199190610f6c565b60405180910390f35b61013c60048036038101906101379190610f87565b610365565b6040516101499190610e51565b60405180910390f35b61015a610411565b6040516101679190610fc3565b60405180910390f35b61017861041b565b005b610194600480360381019061018f9190610fde565b610449565b6040516101a19190610f6c565b60405180910390f35b6101b2610478565b6040516101bf919061104d565b60405180910390f35b6101e260048036038101906101dd91906110cd565b610481565b005b6101fe60048036038101906101f9919061111a565b610515565b60405161020b9190610fc3565b60405180910390f35b61021c61055d565b6040516102299190610e51565b60405180910390f35b61024c60048036038101906102479190610f11565b6105ef565b6040516102599190610f6c565b60405180910390f35b61027c60048036038101906102779190611147565b610612565b6040516102899190610fc3565b60405180910390f35b61029a610699565b6040516102a79190610e51565b60405180910390f35b6060600380546102bf906111b6565b80601f01602080910402602001604051908101604052809291908181526020018280546102eb906111b6565b80156103385780601f1061030d57610100808354040283529160200191610338565b820191906000526020600020905b81548152906001019060200180831161031b57829003601f168201915b5050505050905090565b60008061034d6107a0565b905061035a8185856107a8565b600191505092915050565b6005818154811061037557600080fd5b906000526020600020016000915090508054610390906111b6565b80601f01602080910402602001604051908101604052809291908181526020018280546103bc906111b6565b80156104095780601f106103de57610100808354040283529160200191610409565b820191906000526020600020905b8154815290600101906020018083116103ec57829003601f168201915b505050505081565b6000600254905090565b6000601260ff16600a61042e9190611349565b606461043a9190611394565b905061044633826107ba565b50565b6000806104546107a0565b905061046185828561083c565b61046c8585856108d1565b60019150509392505050565b60006012905090565b60058282909180600181540180825580915050600190039060005260206000200160009091929091929091929091925091826104be9291906115bc565b503373ffffffffffffffffffffffffffffffffffffffff167fe2bf2739b6fd3a7c1b0dcd182f6d7f78f6b79c69eb667fff489941a52a00258b838342604051610509939291906116c8565b60405180910390a25050565b60008060008373ffffffffffffffffffffffffffffffffffffffff1673ffffffffffffffffffffffffffffffffffffffff168152602001908152602001600020549050919050565b60606004805461056c906111b6565b80601f0160208091040260200160405190810160405280929190818152602001828054610598906111b6565b80156105e55780601f106105ba576101008083540402835291602001916105e5565b820191906000526020600020905b8154815290600101906020018083116105c857829003601f168201915b5050505050905090565b6000806105fa6107a0565b90506106078185856108d1565b600191505092915050565b6000600160008473ffffffffffffffffffffffffffffffffffffffff1673ffffffffffffffffffffffffffffffffffffffff16815260200190815260200160002060008373ffffffffffffffffffffffffffffffffffffffff1673ffffffffffffffffffffffffffffffffffffffff16815260200190815260200160002054905092915050565b60606000600580549050116106e3576040517f08c379a00000000000000000000000000000000000000000000000000000000081526004016106da90611746565b60405180910390fd5b600560016005805490506106f79190611766565b815481106107085761070761179a565b5b90600052602060002001805461071d906111b6565b80601f0160208091040260200160405190810160405280929190818152602001828054610749906111b6565b80156107965780601f1061076b57610100808354040283529160200191610796565b820191906000526020600020905b81548152906001019060200180831161077957829003601f168201915b5050505050905090565b600033905090565b6107b583838360016109c5565b505050565b600073ffffffffffffffffffffffffffffffffffffffff168273ffffffffffffffffffffffffffffffffffffffff160361082c5760006040517fec442f0500000000000000000000000000000000000000000000000000000000815260040161082391906117d8565b60405180910390fd5b61083860008383610b9c565b5050565b60006108488484610612565b90507fffffffffffffffffffffffffffffffffffffffffffffffffffffffffffffffff8110156108cb57818110156108bb578281836040517ffb8f41b20000000000000000000000000000000000000000000000000000000081526004016108b2939291906117f3565b60405180910390fd5b6108ca848484840360006109c5565b5b50505050565b600073ffffffffffffffffffffffffffffffffffffffff168373ffffffffffffffffffffffffffffffffffffffff16036109435760006040517f96c6fd1e00000000000000000000000000000000000000000000000000000000815260040161093a91906117d8565b60405180910390fd5b600073ffffffffffffffffffffffffffffffffffffffff168273ffffffffffffffffffffffffffffffffffffffff16036109b55760006040517fec442f050000000000000000000000000000000000000000000000000000000081526004016109ac91906117d8565b60405180910390fd5b6109c0838383610b9c565b505050565b600073ffffffffffffffffffffffffffffffffffffffff168473ffffffffffffffffffffffffffffffffffffffff1603610a375760006040517fe602df05000000000000000000000000000000000000000000000000000000008152600401610a2e91906117d8565b60405180910390fd5b600073ffffffffffffffffffffffffffffffffffffffff168373ffffffffffffffffffffffffffffffffffffffff1603610aa95760006040517f94280d62000000000000000000000000000000000000000000000000000000008152600401610aa091906117d8565b60405180910390fd5b81600160008673ffffffffffffffffffffffffffffffffffffffff1673ffffffffffffffffffffffffffffffffffffffff16815260200190815260200160002060008573ffffffffffffffffffffffffffffffffffffffff1673ffffffffffffffffffffffffffffffffffffffff168152602001908152602001600020819055508015610b96578273ffffffffffffffffffffffffffffffffffffffff168473ffffffffffffffffffffffffffffffffffffffff167f8c5be1e5ebec7d5bd14f71427d1e84f3dd0314c0f7b2291e5b200ac8c7c3b92584604051610b8d9190610fc3565b60405180910390a35b50505050565b600073ffffffffffffffffffffffffffffffffffffffff168373ffffffffffffffffffffffffffffffffffffffff1603610bee578060026000828254610be2919061182a565b92505081905550610cc1565b60008060008573ffffffffffffffffffffffffffffffffffffffff1673ffffffffffffffffffffffffffffffffffffffff16815260200190815260200160002054905081811015610c7a578381836040517fe450d38c000000000000000000000000000000000000000000000000000000008152600401610c71939291906117f3565b60405180910390fd5b8181036000808673ffffffffffffffffffffffffffffffffffffffff1673ffffffffffffffffffffffffffffffffffffffff16815260200190815260200160002081905550505b600073ffffffffffffffffffffffffffffffffffffffff168273ffffffffffffffffffffffffffffffffffffffff1603610d0a5780600260008282540392505081905550610d57565b806000808473ffffffffffffffffffffffffffffffffffffffff1673ffffffffffffffffffffffffffffffffffffffff168152602001908152602001600020600082825401925050819055505b8173ffffffffffffffffffffffffffffffffffffffff168373ffffffffffffffffffffffffffffffffffffffff167fddf252ad1be2c89b69c2b068fc378daa952ba7f163c4a11628f55a4df523b3ef83604051610db49190610fc3565b60405180910390a3505050565b600081519050919050565b600082825260208201905092915050565b60005b83811015610dfb578082015181840152602081019050610de0565b60008484015250505050565b6000601f19601f8301169050919050565b6000610e2382610dc1565b610e2d8185610dcc565b9350610e3d818560208601610ddd565b610e4681610e07565b840191505092915050565b60006020820190508181036000830152610e6b8184610e18565b905092915050565b600080fd5b600080fd5b600073ffffffffffffffffffffffffffffffffffffffff82169050919050565b6000610ea882610e7d565b9050919050565b610eb881610e9d565b8114610ec357600080fd5b50565b600081359050610ed581610eaf565b92915050565b6000819050919050565b610eee81610edb565b8114610ef957600080fd5b50565b600081359050610f0b81610ee5565b92915050565b60008060408385031215610f2857610f27610e73565b5b6000610f3685828601610ec6565b9250506020610f4785828601610efc565b9150509250929050565b60008115159050919050565b610f6681610f51565b82525050565b6000602082019050610f816000830184610f5d565b92915050565b600060208284031215610f9d57610f9c610e73565b5b6000610fab84828501610efc565b91505092915050565b610fbd81610edb565b82525050565b6000602082019050610fd86000830184610fb4565b92915050565b600080600060608486031215610ff757610ff6610e73565b5b600061100586828701610ec6565b935050602061101686828701610ec6565b925050604061102786828701610efc565b9150509250925092565b600060ff82169050919050565b61104781611031565b82525050565b6000602082019050611062600083018461103e565b92915050565b600080fd5b600080fd5b600080fd5b60008083601f84011261108d5761108c611068565b5b8235905067ffffffffffffffff8111156110aa576110a961106d565b5b6020830191508360018202830111156110c6576110c5611072565b5b9250929050565b600080602083850312156110e4576110e3610e73565b5b600083013567ffffffffffffffff81111561110257611101610e78565b5b61110e85828601611077565b92509250509250929050565b6000602082840312156111305761112f610e73565b5b600061113e84828501610ec6565b91505092915050565b6000806040838503121561115e5761115d610e73565b5b600061116c85828601610ec6565b925050602061117d85828601610ec6565b9150509250929050565b7f4e487b7100000000000000000000000000000000000000000000000000000000600052602260045260246000fd5b600060028204905060018216806111ce57607f821691505b6020821081036111e1576111e0611187565b5b50919050565b7f4e487b7100000000000000000000000000000000000000000000000000000000600052601160045260246000fd5b60008160011c9050919050565b6000808291508390505b600185111561126d57808604811115611249576112486111e7565b5b60018516156112585780820291505b808102905061126685611216565b945061122d565b94509492505050565b6000826112865760019050611342565b816112945760009050611342565b81600181146112aa57600281146112b4576112e3565b6001915050611342565b60ff8411156112c6576112c56111e7565b5b8360020a9150848211156112dd576112dc6111e7565b5b50611342565b5060208310610133831016604e8410600b84101617156113185782820a905083811115611313576113126111e7565b5b611342565b6113258484846001611223565b9250905081840481111561133c5761133b6111e7565b5b81810290505b9392505050565b600061135482610edb565b915061135f83610edb565b925061138c7fffffffffffffffffffffffffffffffffffffffffffffffffffffffffffffffff8484611276565b905092915050565b600061139f82610edb565b91506113aa83610edb565b92508282026113b881610edb565b915082820484148315176113cf576113ce6111e7565b5b5092915050565b600082905092915050565b7f4e487b7100000000000000000000000000000000000000000000000000000000600052604160045260246000fd5b60008190508160005260206000209050919050565b60006020601f8301049050919050565b600082821b905092915050565b6000600883026114727fffffffffffffffffffffffffffffffffffffffffffffffffffffffffffffffff82611435565b61147c8683611435565b95508019841693508086168417925050509392505050565b6000819050919050565b60006114b96114b46114af84610edb565b611494565b610edb565b9050919050565b6000819050919050565b6114d38361149e565b6114e76114df826114c0565b848454611442565b825550505050565b600090565b6114fc6114ef565b6115078184846114ca565b505050565b5b8181101561152b576115206000826114f4565b60018101905061150d565b5050565b601f8211156115705761154181611410565b61154a84611425565b81016020851015611559578190505b61156d61156585611425565b83018261150c565b50505b505050565b600082821c905092915050565b600061159360001984600802611575565b1980831691505092915050565b60006115ac8383611582565b9150826002028217905092915050565b6115c683836113d6565b67ffffffffffffffff8111156115df576115de6113e1565b5b6115e982546111b6565b6115f482828561152f565b6000601f8311600181146116235760008415611611578287013590505b61161b85826115a0565b865550611683565b601f19841661163186611410565b60005b8281101561165957848901358255600182019150602085019450602081019050611634565b868310156116765784890135611672601f891682611582565b8355505b6001600288020188555050505b50505050505050565b82818337600083830152505050565b60006116a78385610dcc565b93506116b483858461168c565b6116bd83610e07565b840190509392505050565b600060408201905081810360008301526116e381858761169b565b90506116f26020830184610fb4565b949350505050565b7f4e6f206d65737361676573207965740000000000000000000000000000000000600082015250565b6000611730600f83610dcc565b915061173b826116fa565b602082019050919050565b6000602082019050818103600083015261175f81611723565b9050919050565b600061177182610edb565b915061177c83610edb565b9250828203905081811115611794576117936111e7565b5b92915050565b7f4e487b7100000000000000000000000000000000000000000000000000000000600052603260045260246000fd5b6117d281610e9d565b82525050565b60006020820190506117ed60008301846117c9565b92915050565b600060608201905061180860008301866117c9565b6118156020830185610fb4565b6118226040830184610fb4565b949350505050565b600061183582610edb565b915061184083610edb565b9250828201905080821115611858576118576111e7565b5b9291505056fea26469706673582212200509d6bdf202f0ecb516899276957e46df6d3ee4b5b4e5d153c1b76a34e049ff64736f6c634300081c0033",
    "linkReferences": {},
    "deployedLinkReferences": {}
}