{
  "_format": "hh-sol-artifact-1",
  "contractName": "IdeaFactory",
  "sourceName": "contracts/IdeaFactory.sol",
  "abi": [
    {
      "inputs": [
        {
          "internalType": "contract IdeaToken",
          "name": "_ideaToken",
          "type": "address"
        },
        {
          "internalType": "contract Treasury",
          "name": "_treasury",
          "type": "address"
        }
      ],
      "stateMutability": "nonpayable",
      "type": "constructor"
    },
    {
      "anonymous": false,
      "inputs": [
        {
          "indexed": false,
          "internalType": "string",
          "name": "username",
          "type": "string"
        },
        {
          "indexed": false,
          "internalType": "address",
          "name": "staker",
          "type": "address"
        },
        {
          "indexed": false,
          "internalType": "address",
          "name": "ideaAddress",
          "type": "address"
        }
      ],
      "name": "IdeaCreated",
      "type": "event"
    },
    {
      "inputs": [],
      "name": "IDEA_COST",
      "outputs": [
        {
          "internalType": "uint256",
          "name": "",
          "type": "uint256"
        }
      ],
      "stateMutability": "view",
      "type": "function"
    },
    {
      "inputs": [
        {
          "internalType": "string",
          "name": "username",
          "type": "string"
        },
        {
          "internalType": "uint256",
          "name": "timeLimit",
          "type": "uint256"
        }
      ],
      "name": "createIdeaContract",
      "outputs": [
        {
          "internalType": "contract Idea",
          "name": "",
          "type": "address"
        }
      ],
      "stateMutability": "nonpayable",
      "type": "function"
    },
    {
      "inputs": [
        {
          "internalType": "uint256",
          "name": "",
          "type": "uint256"
        }
      ],
      "name": "deployedIdeas",
      "outputs": [
        {
          "internalType": "contract Idea",
          "name": "",
          "type": "address"
        }
      ],
      "stateMutability": "view",
      "type": "function"
    },
    {
      "inputs": [],
      "name": "ideaToken",
      "outputs": [
        {
          "internalType": "contract IdeaToken",
          "name": "",
          "type": "address"
        }
      ],
      "stateMutability": "view",
      "type": "function"
    },
    {
      "inputs": [],
      "name": "treasury",
      "outputs": [
        {
          "internalType": "contract Treasury",
          "name": "",
          "type": "address"
        }
      ],
      "stateMutability": "view",
      "type": "function"
    }
  ],
  "bytecode": "0x60806040523480156200001157600080fd5b50604051620025b7380380620025b7833981810160405281019062000037919062000183565b816000806101000a81548173ffffffffffffffffffffffffffffffffffffffff021916908373ffffffffffffffffffffffffffffffffffffffff16021790555080600160006101000a81548173ffffffffffffffffffffffffffffffffffffffff021916908373ffffffffffffffffffffffffffffffffffffffff1602179055505050620001ca565b600080fd5b600073ffffffffffffffffffffffffffffffffffffffff82169050919050565b6000620000f282620000c5565b9050919050565b60006200010682620000e5565b9050919050565b6200011881620000f9565b81146200012457600080fd5b50565b60008151905062000138816200010d565b92915050565b60006200014b82620000e5565b9050919050565b6200015d816200013e565b81146200016957600080fd5b50565b6000815190506200017d8162000152565b92915050565b600080604083850312156200019d576200019c620000c0565b5b6000620001ad8582860162000127565b9250506020620001c0858286016200016c565b9150509250929050565b6123dd80620001da6000396000f3fe60806040523480156200001157600080fd5b50600436106200005e5760003560e01c80630161fe321462000063578063277b2590146200008557806356a8dfc814620000a757806361d027b314620000dd578063f739bf4d14620000ff575b600080fd5b6200006d62000135565b6040516200007c919062000485565b60405180910390f35b6200008f62000159565b6040516200009e9190620004bd565b60405180910390f35b620000c56004803603810190620000bf919062000681565b62000165565b604051620000d491906200070c565b60405180910390f35b620000e762000386565b604051620000f691906200074e565b60405180910390f35b6200011d60048036038101906200011791906200076b565b620003ac565b6040516200012c91906200070c565b60405180910390f35b60008054906101000a900473ffffffffffffffffffffffffffffffffffffffff1681565b678ac7230489e8000081565b60008060009054906101000a900473ffffffffffffffffffffffffffffffffffffffff1673ffffffffffffffffffffffffffffffffffffffff166323b872dd33600160009054906101000a900473ffffffffffffffffffffffffffffffffffffffff16678ac7230489e800006040518463ffffffff1660e01b8152600401620001f193929190620007c2565b6020604051808303816000875af115801562000211573d6000803e3d6000fd5b505050506040513d601f19601f820116820180604052508101906200023791906200083c565b62000279576040517f08c379a00000000000000000000000000000000000000000000000000000000081526004016200027090620008f5565b60405180910390fd5b60003360008054906101000a900473ffffffffffffffffffffffffffffffffffffffff168585604051620002ad90620003ec565b620002bc94939291906200098f565b604051809103906000f080158015620002d9573d6000803e3d6000fd5b5090506002819080600181540180825580915050600190039060005260206000200160009091909190916101000a81548173ffffffffffffffffffffffffffffffffffffffff021916908373ffffffffffffffffffffffffffffffffffffffff1602179055507ff8b9d25d5913379478f1ab04d1642eaa119fce51d7e4f8dfbb5f6ec7e9ca37128433836040516200037493929190620009e3565b60405180910390a18091505092915050565b600160009054906101000a900473ffffffffffffffffffffffffffffffffffffffff1681565b60028181548110620003bd57600080fd5b906000526020600020016000915054906101000a900473ffffffffffffffffffffffffffffffffffffffff1681565b6119808062000a2883390190565b600073ffffffffffffffffffffffffffffffffffffffff82169050919050565b6000819050919050565b6000620004456200043f6200043984620003fa565b6200041a565b620003fa565b9050919050565b6000620004598262000424565b9050919050565b60006200046d826200044c565b9050919050565b6200047f8162000460565b82525050565b60006020820190506200049c600083018462000474565b92915050565b6000819050919050565b620004b781620004a2565b82525050565b6000602082019050620004d46000830184620004ac565b92915050565b6000604051905090565b600080fd5b600080fd5b600080fd5b600080fd5b6000601f19601f8301169050919050565b7f4e487b7100000000000000000000000000000000000000000000000000000000600052604160045260246000fd5b6200054382620004f8565b810181811067ffffffffffffffff8211171562000565576200056462000509565b5b80604052505050565b60006200057a620004da565b905062000588828262000538565b919050565b600067ffffffffffffffff821115620005ab57620005aa62000509565b5b620005b682620004f8565b9050602081019050919050565b82818337600083830152505050565b6000620005e9620005e3846200058d565b6200056e565b905082815260208101848484011115620006085762000607620004f3565b5b62000615848285620005c3565b509392505050565b600082601f830112620006355762000634620004ee565b5b813562000647848260208601620005d2565b91505092915050565b6200065b81620004a2565b81146200066757600080fd5b50565b6000813590506200067b8162000650565b92915050565b600080604083850312156200069b576200069a620004e4565b5b600083013567ffffffffffffffff811115620006bc57620006bb620004e9565b5b620006ca858286016200061d565b9250506020620006dd858286016200066a565b9150509250929050565b6000620006f4826200044c565b9050919050565b6200070681620006e7565b82525050565b6000602082019050620007236000830184620006fb565b92915050565b600062000736826200044c565b9050919050565b620007488162000729565b82525050565b60006020820190506200076560008301846200073d565b92915050565b600060208284031215620007845762000783620004e4565b5b600062000794848285016200066a565b91505092915050565b6000620007aa82620003fa565b9050919050565b620007bc816200079d565b82525050565b6000606082019050620007d96000830186620007b1565b620007e86020830185620007b1565b620007f76040830184620004ac565b949350505050565b60008115159050919050565b6200081681620007ff565b81146200082257600080fd5b50565b60008151905062000836816200080b565b92915050565b600060208284031215620008555762000854620004e4565b5b6000620008658482850162000825565b91505092915050565b600082825260208201905092915050565b7f49646561466163746f72793a20557066726f6e7420636f7374207472616e736660008201527f6572206661696c65640000000000000000000000000000000000000000000000602082015250565b6000620008dd6029836200086e565b9150620008ea826200087f565b604082019050919050565b600060208201905081810360008301526200091081620008ce565b9050919050565b600081519050919050565b60005b838110156200094257808201518184015260208101905062000925565b60008484015250505050565b60006200095b8262000917565b6200096781856200086e565b93506200097981856020860162000922565b6200098481620004f8565b840191505092915050565b6000608082019050620009a66000830187620007b1565b620009b5602083018662000474565b8181036040830152620009c981856200094e565b9050620009da6060830184620004ac565b95945050505050565b60006060820190508181036000830152620009ff81866200094e565b905062000a106020830185620007b1565b62000a1f6040830184620007b1565b94935050505056fe60806040523480156200001157600080fd5b506040516200198038038062001980833981810160405281019062000037919062000360565b83600160006101000a81548173ffffffffffffffffffffffffffffffffffffffff021916908373ffffffffffffffffffffffffffffffffffffffff160217905550826000806101000a81548173ffffffffffffffffffffffffffffffffffffffff021916908373ffffffffffffffffffffffffffffffffffffffff1602179055508160029081620000c9919062000632565b508042620000d8919062000748565b6005819055505050505062000783565b6000604051905090565b600080fd5b600080fd5b600073ffffffffffffffffffffffffffffffffffffffff82169050919050565b60006200012982620000fc565b9050919050565b6200013b816200011c565b81146200014757600080fd5b50565b6000815190506200015b8162000130565b92915050565b60006200016e826200011c565b9050919050565b620001808162000161565b81146200018c57600080fd5b50565b600081519050620001a08162000175565b92915050565b600080fd5b600080fd5b6000601f19601f8301169050919050565b7f4e487b7100000000000000000000000000000000000000000000000000000000600052604160045260246000fd5b620001fb82620001b0565b810181811067ffffffffffffffff821117156200021d576200021c620001c1565b5b80604052505050565b600062000232620000e8565b9050620002408282620001f0565b919050565b600067ffffffffffffffff821115620002635762000262620001c1565b5b6200026e82620001b0565b9050602081019050919050565b60005b838110156200029b5780820151818401526020810190506200027e565b60008484015250505050565b6000620002be620002b88462000245565b62000226565b905082815260208101848484011115620002dd57620002dc620001ab565b5b620002ea8482856200027b565b509392505050565b600082601f8301126200030a5762000309620001a6565b5b81516200031c848260208601620002a7565b91505092915050565b6000819050919050565b6200033a8162000325565b81146200034657600080fd5b50565b6000815190506200035a816200032f565b92915050565b600080600080608085870312156200037d576200037c620000f2565b5b60006200038d878288016200014a565b9450506020620003a0878288016200018f565b935050604085015167ffffffffffffffff811115620003c457620003c3620000f7565b5b620003d287828801620002f2565b9250506060620003e58782880162000349565b91505092959194509250565b600081519050919050565b7f4e487b7100000000000000000000000000000000000000000000000000000000600052602260045260246000fd5b600060028204905060018216806200044457607f821691505b6020821081036200045a5762000459620003fc565b5b50919050565b60008190508160005260206000209050919050565b60006020601f8301049050919050565b600082821b905092915050565b600060088302620004c47fffffffffffffffffffffffffffffffffffffffffffffffffffffffffffffffff8262000485565b620004d0868362000485565b95508019841693508086168417925050509392505050565b6000819050919050565b6000620005136200050d620005078462000325565b620004e8565b62000325565b9050919050565b6000819050919050565b6200052f83620004f2565b620005476200053e826200051a565b84845462000492565b825550505050565b600090565b6200055e6200054f565b6200056b81848462000524565b505050565b5b8181101562000593576200058760008262000554565b60018101905062000571565b5050565b601f821115620005e257620005ac8162000460565b620005b78462000475565b81016020851015620005c7578190505b620005df620005d68562000475565b83018262000570565b50505b505050565b600082821c905092915050565b60006200060760001984600802620005e7565b1980831691505092915050565b6000620006228383620005f4565b9150826002028217905092915050565b6200063d82620003f1565b67ffffffffffffffff811115620006595762000658620001c1565b5b6200066582546200042b565b6200067282828562000597565b600060209050601f831160018114620006aa576000841562000695578287015190505b620006a1858262000614565b86555062000711565b601f198416620006ba8662000460565b60005b82811015620006e457848901518255600182019150602085019450602081019050620006bd565b8683101562000704578489015162000700601f891682620005f4565b8355505b6001600288020188555050505b505050505050565b7f4e487b7100000000000000000000000000000000000000000000000000000000600052601160045260246000fd5b6000620007558262000325565b9150620007628362000325565b92508282019050808211156200077d576200077c62000719565b5b92915050565b6111ed80620007936000396000f3fe608060405234801561001057600080fd5b50600436106100a95760003560e01c806371d772ca1161007157806371d772ca14610142578063817b1cd21461015e5780638ac334871461017c5780638da5cb5b1461019a5780639168ae72146101b8578063a51336b4146101e9576100a9565b80630161fe32146100ae5780630917e776146100cc5780630c4f65bd146100ea5780632507190a146101085780634da6a55614610112575b600080fd5b6100b6610207565b6040516100c391906109a8565b60405180910390f35b6100d461022b565b6040516100e191906109dc565b60405180910390f35b6100f2610235565b6040516100ff9190610a18565b60405180910390f35b61011061025f565b005b61012c60048036038101906101279190610a73565b610545565b60405161013991906109dc565b60405180910390f35b61015c60048036038101906101579190610c12565b610591565b005b6101666107bd565b60405161017391906109dc565b60405180910390f35b6101846107c3565b60405161019191906109dc565b60405180910390f35b6101a26107c9565b6040516101af9190610a18565b60405180910390f35b6101d260048036038101906101cd9190610a73565b6107ef565b6040516101e0929190610ced565b60405180910390f35b6101f161089b565b6040516101fe9190610d1d565b60405180910390f35b60008054906101000a900473ffffffffffffffffffffffffffffffffffffffff1681565b6000600454905090565b6000600160009054906101000a900473ffffffffffffffffffffffffffffffffffffffff16905090565b600160009054906101000a900473ffffffffffffffffffffffffffffffffffffffff1673ffffffffffffffffffffffffffffffffffffffff163373ffffffffffffffffffffffffffffffffffffffff16146102ef576040517f08c379a00000000000000000000000000000000000000000000000000000000081526004016102e690610d8b565b60405180910390fd5b600554421015610334576040517f08c379a000000000000000000000000000000000000000000000000000000000815260040161032b90610df7565b60405180910390fd5b60008060009054906101000a900473ffffffffffffffffffffffffffffffffffffffff1673ffffffffffffffffffffffffffffffffffffffff166370a08231306040518263ffffffff1660e01b81526004016103909190610a18565b602060405180830381865afa1580156103ad573d6000803e3d6000fd5b505050506040513d601f19601f820116820180604052508101906103d19190610e2c565b905060008054906101000a900473ffffffffffffffffffffffffffffffffffffffff1673ffffffffffffffffffffffffffffffffffffffff1663a9059cbb600160009054906101000a900473ffffffffffffffffffffffffffffffffffffffff16836040518363ffffffff1660e01b8152600401610450929190610e59565b6020604051808303816000875af115801561046f573d6000803e3d6000fd5b505050506040513d601f19601f820116820180604052508101906104939190610eba565b6104d2576040517f08c379a00000000000000000000000000000000000000000000000000000000081526004016104c990610f33565b60405180910390fd5b600160009054906101000a900473ffffffffffffffffffffffffffffffffffffffff1673ffffffffffffffffffffffffffffffffffffffff167fb045cf3686325ec24e0765938e9f8eaed11c4d4cf889b6afced88b5bd8a587dd8260405161053a91906109dc565b60405180910390a250565b6000600360008373ffffffffffffffffffffffffffffffffffffffff1673ffffffffffffffffffffffffffffffffffffffff168152602001908152602001600020600101549050919050565b60055442106105d5576040517f08c379a00000000000000000000000000000000000000000000000000000000081526004016105cc90610f9f565b60405180910390fd5b60008111610618576040517f08c379a000000000000000000000000000000000000000000000000000000000815260040161060f90611031565b60405180910390fd5b60008054906101000a900473ffffffffffffffffffffffffffffffffffffffff1673ffffffffffffffffffffffffffffffffffffffff166323b872dd3330846040518463ffffffff1660e01b815260040161067593929190611051565b6020604051808303816000875af1158015610694573d6000803e3d6000fd5b505050506040513d601f19601f820116820180604052508101906106b89190610eba565b6106f7576040517f08c379a00000000000000000000000000000000000000000000000000000000081526004016106ee906110d4565b60405180910390fd5b80600360003373ffffffffffffffffffffffffffffffffffffffff1673ffffffffffffffffffffffffffffffffffffffff16815260200190815260200160002060010160008282546107499190611123565b9250508190555080600460008282546107629190611123565b925050819055503373ffffffffffffffffffffffffffffffffffffffff167fe704d6dc8a9b67b1c77083755dbee778ab04711df13ef26fef8670b80467f9bc83836040516107b1929190610ced565b60405180910390a25050565b60045481565b60055481565b600160009054906101000a900473ffffffffffffffffffffffffffffffffffffffff1681565b600360205280600052604060002060009150905080600001805461081290611186565b80601f016020809104026020016040519081016040528092919081815260200182805461083e90611186565b801561088b5780601f106108605761010080835404028352916020019161088b565b820191906000526020600020905b81548152906001019060200180831161086e57829003601f168201915b5050505050908060010154905082565b600280546108a890611186565b80601f01602080910402602001604051908101604052809291908181526020018280546108d490611186565b80156109215780601f106108f657610100808354040283529160200191610921565b820191906000526020600020905b81548152906001019060200180831161090457829003601f168201915b505050505081565b600073ffffffffffffffffffffffffffffffffffffffff82169050919050565b6000819050919050565b600061096e61096961096484610929565b610949565b610929565b9050919050565b600061098082610953565b9050919050565b600061099282610975565b9050919050565b6109a281610987565b82525050565b60006020820190506109bd6000830184610999565b92915050565b6000819050919050565b6109d6816109c3565b82525050565b60006020820190506109f160008301846109cd565b92915050565b6000610a0282610929565b9050919050565b610a12816109f7565b82525050565b6000602082019050610a2d6000830184610a09565b92915050565b6000604051905090565b600080fd5b600080fd5b610a50816109f7565b8114610a5b57600080fd5b50565b600081359050610a6d81610a47565b92915050565b600060208284031215610a8957610a88610a3d565b5b6000610a9784828501610a5e565b91505092915050565b600080fd5b600080fd5b6000601f19601f8301169050919050565b7f4e487b7100000000000000000000000000000000000000000000000000000000600052604160045260246000fd5b610af382610aaa565b810181811067ffffffffffffffff82111715610b1257610b11610abb565b5b80604052505050565b6000610b25610a33565b9050610b318282610aea565b919050565b600067ffffffffffffffff821115610b5157610b50610abb565b5b610b5a82610aaa565b9050602081019050919050565b82818337600083830152505050565b6000610b89610b8484610b36565b610b1b565b905082815260208101848484011115610ba557610ba4610aa5565b5b610bb0848285610b67565b509392505050565b600082601f830112610bcd57610bcc610aa0565b5b8135610bdd848260208601610b76565b91505092915050565b610bef816109c3565b8114610bfa57600080fd5b50565b600081359050610c0c81610be6565b92915050565b60008060408385031215610c2957610c28610a3d565b5b600083013567ffffffffffffffff811115610c4757610c46610a42565b5b610c5385828601610bb8565b9250506020610c6485828601610bfd565b9150509250929050565b600081519050919050565b600082825260208201905092915050565b60005b83811015610ca8578082015181840152602081019050610c8d565b60008484015250505050565b6000610cbf82610c6e565b610cc98185610c79565b9350610cd9818560208601610c8a565b610ce281610aaa565b840191505092915050565b60006040820190508181036000830152610d078185610cb4565b9050610d1660208301846109cd565b9392505050565b60006020820190508181036000830152610d378184610cb4565b905092915050565b7f4f6e6c79206f776e65722063616e20656e64207374616b696e67000000000000600082015250565b6000610d75601a83610c79565b9150610d8082610d3f565b602082019050919050565b60006020820190508181036000830152610da481610d68565b9050919050565b7f5374616b696e6720706572696f64206e6f7420656e6465642079657400000000600082015250565b6000610de1601c83610c79565b9150610dec82610dab565b602082019050919050565b60006020820190508181036000830152610e1081610dd4565b9050919050565b600081519050610e2681610be6565b92915050565b600060208284031215610e4257610e41610a3d565b5b6000610e5084828501610e17565b91505092915050565b6000604082019050610e6e6000830185610a09565b610e7b60208301846109cd565b9392505050565b60008115159050919050565b610e9781610e82565b8114610ea257600080fd5b50565b600081519050610eb481610e8e565b92915050565b600060208284031215610ed057610ecf610a3d565b5b6000610ede84828501610ea5565b91505092915050565b7f5472616e7366657220746f206f776e6572206661696c65640000000000000000600082015250565b6000610f1d601883610c79565b9150610f2882610ee7565b602082019050919050565b60006020820190508181036000830152610f4c81610f10565b9050919050565b7f5374616b696e6720706572696f64206861732065787069726564000000000000600082015250565b6000610f89601a83610c79565b9150610f9482610f53565b602082019050919050565b60006020820190508181036000830152610fb881610f7c565b9050919050565b7f5374616b6520616d6f756e74206d75737420626520677265617465722074686160008201527f6e207a65726f0000000000000000000000000000000000000000000000000000602082015250565b600061101b602683610c79565b915061102682610fbf565b604082019050919050565b6000602082019050818103600083015261104a8161100e565b9050919050565b60006060820190506110666000830186610a09565b6110736020830185610a09565b61108060408301846109cd565b949350505050565b7f546f6b656e207472616e73666572206661696c65640000000000000000000000600082015250565b60006110be601583610c79565b91506110c982611088565b602082019050919050565b600060208201905081810360008301526110ed816110b1565b9050919050565b7f4e487b7100000000000000000000000000000000000000000000000000000000600052601160045260246000fd5b600061112e826109c3565b9150611139836109c3565b9250828201905080821115611151576111506110f4565b5b92915050565b7f4e487b7100000000000000000000000000000000000000000000000000000000600052602260045260246000fd5b6000600282049050600182168061119e57607f821691505b6020821081036111b1576111b0611157565b5b5091905056fea264697066735822122054c37e3ca2b614b5b00bf3320ffa3b926bf8bbf665addd45ea1bb885d530774564736f6c63430008140033a26469706673582212200b9464923b0cbfa556b5425f359bdb69789049cd28b07f896067ff9920ac062164736f6c63430008140033",
  "linkReferences": {},
  "deployedLinkReferences": {}
}