{
  "_format": "hh-sol-artifact-1",
  "contractName": "IdeaToken",
  "sourceName": "contracts/IdeaToken.sol",
  "abi": [
    {
      "inputs": [
        {
          "internalType": "address",
          "name": "treasury",
          "type": "address"
        }
      ],
      "stateMutability": "nonpayable",
      "type": "constructor"
    },
    {
      "inputs": [
        {
          "internalType": "address",
          "name": "spender",
          "type": "address"
        },
        {
          "internalType": "uint256",
          "name": "allowance",
          "type": "uint256"
        },
        {
          "internalType": "uint256",
          "name": "needed",
          "type": "uint256"
        }
      ],
      "name": "ERC20InsufficientAllowance",
      "type": "error"
    },
    {
      "inputs": [
        {
          "internalType": "address",
          "name": "sender",
          "type": "address"
        },
        {
          "internalType": "uint256",
          "name": "balance",
          "type": "uint256"
        },
        {
          "internalType": "uint256",
          "name": "needed",
          "type": "uint256"
        }
      ],
      "name": "ERC20InsufficientBalance",
      "type": "error"
    },
    {
      "inputs": [
        {
          "internalType": "address",
          "name": "approver",
          "type": "address"
        }
      ],
      "name": "ERC20InvalidApprover",
      "type": "error"
    },
    {
      "inputs": [
        {
          "internalType": "address",
          "name": "receiver",
          "type": "address"
        }
      ],
      "name": "ERC20InvalidReceiver",
      "type": "error"
    },
    {
      "inputs": [
        {
          "internalType": "address",
          "name": "sender",
          "type": "address"
        }
      ],
      "name": "ERC20InvalidSender",
      "type": "error"
    },
    {
      "inputs": [
        {
          "internalType": "address",
          "name": "spender",
          "type": "address"
        }
      ],
      "name": "ERC20InvalidSpender",
      "type": "error"
    },
    {
      "anonymous": false,
      "inputs": [
        {
          "indexed": true,
          "internalType": "address",
          "name": "owner",
          "type": "address"
        },
        {
          "indexed": true,
          "internalType": "address",
          "name": "spender",
          "type": "address"
        },
        {
          "indexed": false,
          "internalType": "uint256",
          "name": "value",
          "type": "uint256"
        }
      ],
      "name": "Approval",
      "type": "event"
    },
    {
      "anonymous": false,
      "inputs": [
        {
          "indexed": true,
          "internalType": "address",
          "name": "from",
          "type": "address"
        },
        {
          "indexed": true,
          "internalType": "address",
          "name": "to",
          "type": "address"
        },
        {
          "indexed": false,
          "internalType": "uint256",
          "name": "value",
          "type": "uint256"
        }
      ],
      "name": "Transfer",
      "type": "event"
    },
    {
      "inputs": [],
      "name": "INITIAL_SUPPLY",
      "outputs": [
        {
          "internalType": "uint256",
          "name": "",
          "type": "uint256"
        }
      ],
      "stateMutability": "view",
      "type": "function"
    },
    {
      "inputs": [
        {
          "internalType": "address",
          "name": "owner",
          "type": "address"
        },
        {
          "internalType": "address",
          "name": "spender",
          "type": "address"
        }
      ],
      "name": "allowance",
      "outputs": [
        {
          "internalType": "uint256",
          "name": "",
          "type": "uint256"
        }
      ],
      "stateMutability": "view",
      "type": "function"
    },
    {
      "inputs": [
        {
          "internalType": "address",
          "name": "spender",
          "type": "address"
        },
        {
          "internalType": "uint256",
          "name": "value",
          "type": "uint256"
        }
      ],
      "name": "approve",
      "outputs": [
        {
          "internalType": "bool",
          "name": "",
          "type": "bool"
        }
      ],
      "stateMutability": "nonpayable",
      "type": "function"
    },
    {
      "inputs": [
        {
          "internalType": "address",
          "name": "account",
          "type": "address"
        }
      ],
      "name": "balanceOf",
      "outputs": [
        {
          "internalType": "uint256",
          "name": "",
          "type": "uint256"
        }
      ],
      "stateMutability": "view",
      "type": "function"
    },
    {
      "inputs": [],
      "name": "decimals",
      "outputs": [
        {
          "internalType": "uint8",
          "name": "",
          "type": "uint8"
        }
      ],
      "stateMutability": "view",
      "type": "function"
    },
    {
      "inputs": [],
      "name": "name",
      "outputs": [
        {
          "internalType": "string",
          "name": "",
          "type": "string"
        }
      ],
      "stateMutability": "view",
      "type": "function"
    },
    {
      "inputs": [],
      "name": "symbol",
      "outputs": [
        {
          "internalType": "string",
          "name": "",
          "type": "string"
        }
      ],
      "stateMutability": "view",
      "type": "function"
    },
    {
      "inputs": [],
      "name": "totalSupply",
      "outputs": [
        {
          "internalType": "uint256",
          "name": "",
          "type": "uint256"
        }
      ],
      "stateMutability": "view",
      "type": "function"
    },
    {
      "inputs": [
        {
          "internalType": "address",
          "name": "to",
          "type": "address"
        },
        {
          "internalType": "uint256",
          "name": "value",
          "type": "uint256"
        }
      ],
      "name": "transfer",
      "outputs": [
        {
          "internalType": "bool",
          "name": "",
          "type": "bool"
        }
      ],
      "stateMutability": "nonpayable",
      "type": "function"
    },
    {
      "inputs": [
        {
          "internalType": "address",
          "name": "from",
          "type": "address"
        },
        {
          "internalType": "address",
          "name": "to",
          "type": "address"
        },
        {
          "internalType": "uint256",
          "name": "value",
          "type": "uint256"
        }
      ],
      "name": "transferFrom",
      "outputs": [
        {
          "internalType": "bool",
          "name": "",
          "type": "bool"
        }
      ],
      "stateMutability": "nonpayable",
      "type": "function"
    }
  ],
  "bytecode": "0x60806040523480156200001157600080fd5b506040516200174638038062001746833981810160405281019062000037919062000413565b6040518060400160405280600981526020017f49646561546f6b656e00000000000000000000000000000000000000000000008152506040518060400160405280600481526020017f49444541000000000000000000000000000000000000000000000000000000008152508160039081620000b49190620006bf565b508060049081620000c69190620006bf565b505050620000e58169d3c21bcecceda1000000620000ec60201b60201c565b50620008a9565b600073ffffffffffffffffffffffffffffffffffffffff168273ffffffffffffffffffffffffffffffffffffffff1603620001615760006040517fec442f05000000000000000000000000000000000000000000000000000000008152600401620001589190620007b7565b60405180910390fd5b62000175600083836200017960201b60201c565b5050565b600073ffffffffffffffffffffffffffffffffffffffff168373ffffffffffffffffffffffffffffffffffffffff1603620001cf578060026000828254620001c2919062000803565b92505081905550620002a5565b60008060008573ffffffffffffffffffffffffffffffffffffffff1673ffffffffffffffffffffffffffffffffffffffff168152602001908152602001600020549050818110156200025e578381836040517fe450d38c00000000000000000000000000000000000000000000000000000000815260040162000255939291906200084f565b60405180910390fd5b8181036000808673ffffffffffffffffffffffffffffffffffffffff1673ffffffffffffffffffffffffffffffffffffffff16815260200190815260200160002081905550505b600073ffffffffffffffffffffffffffffffffffffffff168273ffffffffffffffffffffffffffffffffffffffff1603620002f057806002600082825403925050819055506200033d565b806000808473ffffffffffffffffffffffffffffffffffffffff1673ffffffffffffffffffffffffffffffffffffffff168152602001908152602001600020600082825401925050819055505b8173ffffffffffffffffffffffffffffffffffffffff168373ffffffffffffffffffffffffffffffffffffffff167fddf252ad1be2c89b69c2b068fc378daa952ba7f163c4a11628f55a4df523b3ef836040516200039c91906200088c565b60405180910390a3505050565b600080fd5b600073ffffffffffffffffffffffffffffffffffffffff82169050919050565b6000620003db82620003ae565b9050919050565b620003ed81620003ce565b8114620003f957600080fd5b50565b6000815190506200040d81620003e2565b92915050565b6000602082840312156200042c576200042b620003a9565b5b60006200043c84828501620003fc565b91505092915050565b600081519050919050565b7f4e487b7100000000000000000000000000000000000000000000000000000000600052604160045260246000fd5b7f4e487b7100000000000000000000000000000000000000000000000000000000600052602260045260246000fd5b60006002820490506001821680620004c757607f821691505b602082108103620004dd57620004dc6200047f565b5b50919050565b60008190508160005260206000209050919050565b60006020601f8301049050919050565b600082821b905092915050565b600060088302620005477fffffffffffffffffffffffffffffffffffffffffffffffffffffffffffffffff8262000508565b62000553868362000508565b95508019841693508086168417925050509392505050565b6000819050919050565b6000819050919050565b6000620005a06200059a62000594846200056b565b62000575565b6200056b565b9050919050565b6000819050919050565b620005bc836200057f565b620005d4620005cb82620005a7565b84845462000515565b825550505050565b600090565b620005eb620005dc565b620005f8818484620005b1565b505050565b5b81811015620006205762000614600082620005e1565b600181019050620005fe565b5050565b601f8211156200066f576200063981620004e3565b6200064484620004f8565b8101602085101562000654578190505b6200066c6200066385620004f8565b830182620005fd565b50505b505050565b600082821c905092915050565b6000620006946000198460080262000674565b1980831691505092915050565b6000620006af838362000681565b9150826002028217905092915050565b620006ca8262000445565b67ffffffffffffffff811115620006e657620006e562000450565b5b620006f28254620004ae565b620006ff82828562000624565b600060209050601f83116001811462000737576000841562000722578287015190505b6200072e8582620006a1565b8655506200079e565b601f1984166200074786620004e3565b60005b8281101562000771578489015182556001820191506020850194506020810190506200074a565b868310156200079157848901516200078d601f89168262000681565b8355505b6001600288020188555050505b505050505050565b620007b181620003ce565b82525050565b6000602082019050620007ce6000830184620007a6565b92915050565b7f4e487b7100000000000000000000000000000000000000000000000000000000600052601160045260246000fd5b600062000810826200056b565b91506200081d836200056b565b9250828201905080821115620008385762000837620007d4565b5b92915050565b62000849816200056b565b82525050565b6000606082019050620008666000830186620007a6565b6200087560208301856200083e565b6200088460408301846200083e565b949350505050565b6000602082019050620008a360008301846200083e565b92915050565b610e8d80620008b96000396000f3fe608060405234801561001057600080fd5b506004361061009e5760003560e01c8063313ce56711610066578063313ce5671461015d57806370a082311461017b57806395d89b41146101ab578063a9059cbb146101c9578063dd62ed3e146101f95761009e565b806306fdde03146100a3578063095ea7b3146100c157806318160ddd146100f157806323b872dd1461010f5780632ff2e9dc1461013f575b600080fd5b6100ab610229565b6040516100b89190610ae1565b60405180910390f35b6100db60048036038101906100d69190610b9c565b6102bb565b6040516100e89190610bf7565b60405180910390f35b6100f96102de565b6040516101069190610c21565b60405180910390f35b61012960048036038101906101249190610c3c565b6102e8565b6040516101369190610bf7565b60405180910390f35b610147610317565b6040516101549190610c21565b60405180910390f35b610165610325565b6040516101729190610cab565b60405180910390f35b61019560048036038101906101909190610cc6565b61032e565b6040516101a29190610c21565b60405180910390f35b6101b3610376565b6040516101c09190610ae1565b60405180910390f35b6101e360048036038101906101de9190610b9c565b610408565b6040516101f09190610bf7565b60405180910390f35b610213600480360381019061020e9190610cf3565b61042b565b6040516102209190610c21565b60405180910390f35b60606003805461023890610d62565b80601f016020809104026020016040519081016040528092919081815260200182805461026490610d62565b80156102b15780601f10610286576101008083540402835291602001916102b1565b820191906000526020600020905b81548152906001019060200180831161029457829003601f168201915b5050505050905090565b6000806102c66104b2565b90506102d38185856104ba565b600191505092915050565b6000600254905090565b6000806102f36104b2565b90506103008582856104cc565b61030b858585610561565b60019150509392505050565b69d3c21bcecceda100000081565b60006012905090565b60008060008373ffffffffffffffffffffffffffffffffffffffff1673ffffffffffffffffffffffffffffffffffffffff168152602001908152602001600020549050919050565b60606004805461038590610d62565b80601f01602080910402602001604051908101604052809291908181526020018280546103b190610d62565b80156103fe5780601f106103d3576101008083540402835291602001916103fe565b820191906000526020600020905b8154815290600101906020018083116103e157829003601f168201915b5050505050905090565b6000806104136104b2565b9050610420818585610561565b600191505092915050565b6000600160008473ffffffffffffffffffffffffffffffffffffffff1673ffffffffffffffffffffffffffffffffffffffff16815260200190815260200160002060008373ffffffffffffffffffffffffffffffffffffffff1673ffffffffffffffffffffffffffffffffffffffff16815260200190815260200160002054905092915050565b600033905090565b6104c78383836001610655565b505050565b60006104d8848461042b565b90507fffffffffffffffffffffffffffffffffffffffffffffffffffffffffffffffff81101561055b578181101561054b578281836040517ffb8f41b200000000000000000000000000000000000000000000000000000000815260040161054293929190610da2565b60405180910390fd5b61055a84848484036000610655565b5b50505050565b600073ffffffffffffffffffffffffffffffffffffffff168373ffffffffffffffffffffffffffffffffffffffff16036105d35760006040517f96c6fd1e0000000000000000000000000000000000000000000000000000000081526004016105ca9190610dd9565b60405180910390fd5b600073ffffffffffffffffffffffffffffffffffffffff168273ffffffffffffffffffffffffffffffffffffffff16036106455760006040517fec442f0500000000000000000000000000000000000000000000000000000000815260040161063c9190610dd9565b60405180910390fd5b61065083838361082c565b505050565b600073ffffffffffffffffffffffffffffffffffffffff168473ffffffffffffffffffffffffffffffffffffffff16036106c75760006040517fe602df050000000000000000000000000000000000000000000000000000000081526004016106be9190610dd9565b60405180910390fd5b600073ffffffffffffffffffffffffffffffffffffffff168373ffffffffffffffffffffffffffffffffffffffff16036107395760006040517f94280d620000000000000000000000000000000000000000000000000000000081526004016107309190610dd9565b60405180910390fd5b81600160008673ffffffffffffffffffffffffffffffffffffffff1673ffffffffffffffffffffffffffffffffffffffff16815260200190815260200160002060008573ffffffffffffffffffffffffffffffffffffffff1673ffffffffffffffffffffffffffffffffffffffff168152602001908152602001600020819055508015610826578273ffffffffffffffffffffffffffffffffffffffff168473ffffffffffffffffffffffffffffffffffffffff167f8c5be1e5ebec7d5bd14f71427d1e84f3dd0314c0f7b2291e5b200ac8c7c3b9258460405161081d9190610c21565b60405180910390a35b50505050565b600073ffffffffffffffffffffffffffffffffffffffff168373ffffffffffffffffffffffffffffffffffffffff160361087e5780600260008282546108729190610e23565b92505081905550610951565b60008060008573ffffffffffffffffffffffffffffffffffffffff1673ffffffffffffffffffffffffffffffffffffffff1681526020019081526020016000205490508181101561090a578381836040517fe450d38c00000000000000000000000000000000000000000000000000000000815260040161090193929190610da2565b60405180910390fd5b8181036000808673ffffffffffffffffffffffffffffffffffffffff1673ffffffffffffffffffffffffffffffffffffffff16815260200190815260200160002081905550505b600073ffffffffffffffffffffffffffffffffffffffff168273ffffffffffffffffffffffffffffffffffffffff160361099a57806002600082825403925050819055506109e7565b806000808473ffffffffffffffffffffffffffffffffffffffff1673ffffffffffffffffffffffffffffffffffffffff168152602001908152602001600020600082825401925050819055505b8173ffffffffffffffffffffffffffffffffffffffff168373ffffffffffffffffffffffffffffffffffffffff167fddf252ad1be2c89b69c2b068fc378daa952ba7f163c4a11628f55a4df523b3ef83604051610a449190610c21565b60405180910390a3505050565b600081519050919050565b600082825260208201905092915050565b60005b83811015610a8b578082015181840152602081019050610a70565b60008484015250505050565b6000601f19601f8301169050919050565b6000610ab382610a51565b610abd8185610a5c565b9350610acd818560208601610a6d565b610ad681610a97565b840191505092915050565b60006020820190508181036000830152610afb8184610aa8565b905092915050565b600080fd5b600073ffffffffffffffffffffffffffffffffffffffff82169050919050565b6000610b3382610b08565b9050919050565b610b4381610b28565b8114610b4e57600080fd5b50565b600081359050610b6081610b3a565b92915050565b6000819050919050565b610b7981610b66565b8114610b8457600080fd5b50565b600081359050610b9681610b70565b92915050565b60008060408385031215610bb357610bb2610b03565b5b6000610bc185828601610b51565b9250506020610bd285828601610b87565b9150509250929050565b60008115159050919050565b610bf181610bdc565b82525050565b6000602082019050610c0c6000830184610be8565b92915050565b610c1b81610b66565b82525050565b6000602082019050610c366000830184610c12565b92915050565b600080600060608486031215610c5557610c54610b03565b5b6000610c6386828701610b51565b9350506020610c7486828701610b51565b9250506040610c8586828701610b87565b9150509250925092565b600060ff82169050919050565b610ca581610c8f565b82525050565b6000602082019050610cc06000830184610c9c565b92915050565b600060208284031215610cdc57610cdb610b03565b5b6000610cea84828501610b51565b91505092915050565b60008060408385031215610d0a57610d09610b03565b5b6000610d1885828601610b51565b9250506020610d2985828601610b51565b9150509250929050565b7f4e487b7100000000000000000000000000000000000000000000000000000000600052602260045260246000fd5b60006002820490506001821680610d7a57607f821691505b602082108103610d8d57610d8c610d33565b5b50919050565b610d9c81610b28565b82525050565b6000606082019050610db76000830186610d93565b610dc46020830185610c12565b610dd16040830184610c12565b949350505050565b6000602082019050610dee6000830184610d93565b92915050565b7f4e487b7100000000000000000000000000000000000000000000000000000000600052601160045260246000fd5b6000610e2e82610b66565b9150610e3983610b66565b9250828201905080821115610e5157610e50610df4565b5b9291505056fea2646970667358221220d8e4fa4faa4fc9aa6b652ea97a2b13259c07d027b117e7401f0f647fff3ebb4f64736f6c63430008140033",
  "linkReferences": {},
  "deployedLinkReferences": {}
}