{
  "_format": "hh-sol-artifact-1",
  "contractName": "IdeaToken",
  "sourceName": "contracts/IdeaToken.sol",
  "abi": [
    {
      "inputs": [
        {
          "internalType": "address",
          "name": "treasury",
          "type": "address"
        }
      ],
      "stateMutability": "nonpayable",
      "type": "constructor"
    },
    {
      "inputs": [],
      "name": "ECDSAInvalidSignature",
      "type": "error"
    },
    {
      "inputs": [
        {
          "internalType": "uint256",
          "name": "length",
          "type": "uint256"
        }
      ],
      "name": "ECDSAInvalidSignatureLength",
      "type": "error"
    },
    {
      "inputs": [
        {
          "internalType": "bytes32",
          "name": "s",
          "type": "bytes32"
        }
      ],
      "name": "ECDSAInvalidSignatureS",
      "type": "error"
    },
    {
      "inputs": [
        {
          "internalType": "address",
          "name": "spender",
          "type": "address"
        },
        {
          "internalType": "uint256",
          "name": "allowance",
          "type": "uint256"
        },
        {
          "internalType": "uint256",
          "name": "needed",
          "type": "uint256"
        }
      ],
      "name": "ERC20InsufficientAllowance",
      "type": "error"
    },
    {
      "inputs": [
        {
          "internalType": "address",
          "name": "sender",
          "type": "address"
        },
        {
          "internalType": "uint256",
          "name": "balance",
          "type": "uint256"
        },
        {
          "internalType": "uint256",
          "name": "needed",
          "type": "uint256"
        }
      ],
      "name": "ERC20InsufficientBalance",
      "type": "error"
    },
    {
      "inputs": [
        {
          "internalType": "address",
          "name": "approver",
          "type": "address"
        }
      ],
      "name": "ERC20InvalidApprover",
      "type": "error"
    },
    {
      "inputs": [
        {
          "internalType": "address",
          "name": "receiver",
          "type": "address"
        }
      ],
      "name": "ERC20InvalidReceiver",
      "type": "error"
    },
    {
      "inputs": [
        {
          "internalType": "address",
          "name": "sender",
          "type": "address"
        }
      ],
      "name": "ERC20InvalidSender",
      "type": "error"
    },
    {
      "inputs": [
        {
          "internalType": "address",
          "name": "spender",
          "type": "address"
        }
      ],
      "name": "ERC20InvalidSpender",
      "type": "error"
    },
    {
      "inputs": [
        {
          "internalType": "uint256",
          "name": "deadline",
          "type": "uint256"
        }
      ],
      "name": "ERC2612ExpiredSignature",
      "type": "error"
    },
    {
      "inputs": [
        {
          "internalType": "address",
          "name": "signer",
          "type": "address"
        },
        {
          "internalType": "address",
          "name": "owner",
          "type": "address"
        }
      ],
      "name": "ERC2612InvalidSigner",
      "type": "error"
    },
    {
      "inputs": [
        {
          "internalType": "address",
          "name": "account",
          "type": "address"
        },
        {
          "internalType": "uint256",
          "name": "currentNonce",
          "type": "uint256"
        }
      ],
      "name": "InvalidAccountNonce",
      "type": "error"
    },
    {
      "inputs": [],
      "name": "InvalidShortString",
      "type": "error"
    },
    {
      "inputs": [
        {
          "internalType": "string",
          "name": "str",
          "type": "string"
        }
      ],
      "name": "StringTooLong",
      "type": "error"
    },
    {
      "anonymous": false,
      "inputs": [
        {
          "indexed": true,
          "internalType": "address",
          "name": "owner",
          "type": "address"
        },
        {
          "indexed": true,
          "internalType": "address",
          "name": "spender",
          "type": "address"
        },
        {
          "indexed": false,
          "internalType": "uint256",
          "name": "value",
          "type": "uint256"
        }
      ],
      "name": "Approval",
      "type": "event"
    },
    {
      "anonymous": false,
      "inputs": [],
      "name": "EIP712DomainChanged",
      "type": "event"
    },
    {
      "anonymous": false,
      "inputs": [
        {
          "indexed": true,
          "internalType": "address",
          "name": "from",
          "type": "address"
        },
        {
          "indexed": true,
          "internalType": "address",
          "name": "to",
          "type": "address"
        },
        {
          "indexed": false,
          "internalType": "uint256",
          "name": "value",
          "type": "uint256"
        }
      ],
      "name": "Transfer",
      "type": "event"
    },
    {
      "inputs": [],
      "name": "DOMAIN_SEPARATOR",
      "outputs": [
        {
          "internalType": "bytes32",
          "name": "",
          "type": "bytes32"
        }
      ],
      "stateMutability": "view",
      "type": "function"
    },
    {
      "inputs": [],
      "name": "INITIAL_SUPPLY",
      "outputs": [
        {
          "internalType": "uint256",
          "name": "",
          "type": "uint256"
        }
      ],
      "stateMutability": "view",
      "type": "function"
    },
    {
      "inputs": [
        {
          "internalType": "address",
          "name": "owner",
          "type": "address"
        },
        {
          "internalType": "address",
          "name": "spender",
          "type": "address"
        }
      ],
      "name": "allowance",
      "outputs": [
        {
          "internalType": "uint256",
          "name": "",
          "type": "uint256"
        }
      ],
      "stateMutability": "view",
      "type": "function"
    },
    {
      "inputs": [
        {
          "internalType": "address",
          "name": "spender",
          "type": "address"
        },
        {
          "internalType": "uint256",
          "name": "value",
          "type": "uint256"
        }
      ],
      "name": "approve",
      "outputs": [
        {
          "internalType": "bool",
          "name": "",
          "type": "bool"
        }
      ],
      "stateMutability": "nonpayable",
      "type": "function"
    },
    {
      "inputs": [
        {
          "internalType": "address",
          "name": "account",
          "type": "address"
        }
      ],
      "name": "balanceOf",
      "outputs": [
        {
          "internalType": "uint256",
          "name": "",
          "type": "uint256"
        }
      ],
      "stateMutability": "view",
      "type": "function"
    },
    {
      "inputs": [],
      "name": "decimals",
      "outputs": [
        {
          "internalType": "uint8",
          "name": "",
          "type": "uint8"
        }
      ],
      "stateMutability": "view",
      "type": "function"
    },
    {
      "inputs": [],
      "name": "eip712Domain",
      "outputs": [
        {
          "internalType": "bytes1",
          "name": "fields",
          "type": "bytes1"
        },
        {
          "internalType": "string",
          "name": "name",
          "type": "string"
        },
        {
          "internalType": "string",
          "name": "version",
          "type": "string"
        },
        {
          "internalType": "uint256",
          "name": "chainId",
          "type": "uint256"
        },
        {
          "internalType": "address",
          "name": "verifyingContract",
          "type": "address"
        },
        {
          "internalType": "bytes32",
          "name": "salt",
          "type": "bytes32"
        },
        {
          "internalType": "uint256[]",
          "name": "extensions",
          "type": "uint256[]"
        }
      ],
      "stateMutability": "view",
      "type": "function"
    },
    {
      "inputs": [],
      "name": "name",
      "outputs": [
        {
          "internalType": "string",
          "name": "",
          "type": "string"
        }
      ],
      "stateMutability": "view",
      "type": "function"
    },
    {
      "inputs": [
        {
          "internalType": "address",
          "name": "owner",
          "type": "address"
        }
      ],
      "name": "nonces",
      "outputs": [
        {
          "internalType": "uint256",
          "name": "",
          "type": "uint256"
        }
      ],
      "stateMutability": "view",
      "type": "function"
    },
    {
      "inputs": [
        {
          "internalType": "address",
          "name": "owner",
          "type": "address"
        },
        {
          "internalType": "address",
          "name": "spender",
          "type": "address"
        },
        {
          "internalType": "uint256",
          "name": "value",
          "type": "uint256"
        },
        {
          "internalType": "uint256",
          "name": "deadline",
          "type": "uint256"
        },
        {
          "internalType": "uint8",
          "name": "v",
          "type": "uint8"
        },
        {
          "internalType": "bytes32",
          "name": "r",
          "type": "bytes32"
        },
        {
          "internalType": "bytes32",
          "name": "s",
          "type": "bytes32"
        }
      ],
      "name": "permit",
      "outputs": [],
      "stateMutability": "nonpayable",
      "type": "function"
    },
    {
      "inputs": [],
      "name": "symbol",
      "outputs": [
        {
          "internalType": "string",
          "name": "",
          "type": "string"
        }
      ],
      "stateMutability": "view",
      "type": "function"
    },
    {
      "inputs": [],
      "name": "totalSupply",
      "outputs": [
        {
          "internalType": "uint256",
          "name": "",
          "type": "uint256"
        }
      ],
      "stateMutability": "view",
      "type": "function"
    },
    {
      "inputs": [
        {
          "internalType": "address",
          "name": "to",
          "type": "address"
        },
        {
          "internalType": "uint256",
          "name": "value",
          "type": "uint256"
        }
      ],
      "name": "transfer",
      "outputs": [
        {
          "internalType": "bool",
          "name": "",
          "type": "bool"
        }
      ],
      "stateMutability": "nonpayable",
      "type": "function"
    },
    {
      "inputs": [
        {
          "internalType": "address",
          "name": "from",
          "type": "address"
        },
        {
          "internalType": "address",
          "name": "to",
          "type": "address"
        },
        {
          "internalType": "uint256",
          "name": "value",
          "type": "uint256"
        }
      ],
      "name": "transferFrom",
      "outputs": [
        {
          "internalType": "bool",
          "name": "",
          "type": "bool"
        }
      ],
      "stateMutability": "nonpayable",
      "type": "function"
    }
  ],
  "bytecode": "0x61016060405234801561001157600080fd5b506040516128c63803806128c683398181016040528101906100339190610626565b6040518060400160405280600981526020017f49646561546f6b656e0000000000000000000000000000000000000000000000815250806040518060400160405280600181526020017f31000000000000000000000000000000000000000000000000000000000000008152506040518060400160405280600981526020017f49646561546f6b656e00000000000000000000000000000000000000000000008152506040518060400160405280600481526020017f4944454100000000000000000000000000000000000000000000000000000000815250816003908161011b91906108a3565b50806004908161012b91906108a3565b5050506101426005836101f960201b90919060201c565b610120818152505061015e6006826101f960201b90919060201c565b6101408181525050818051906020012060e08181525050808051906020012061010081815250504660a0818152505061019b61024960201b60201c565b608081815250503073ffffffffffffffffffffffffffffffffffffffff1660c08173ffffffffffffffffffffffffffffffffffffffff16815250505050506101f38169d3c21bcecceda10000006102a460201b60201c565b50610c0d565b600060208351101561021b576102148361032c60201b60201c565b9050610243565b8261022b8361039460201b60201c565b600001908161023a91906108a3565b5060ff60001b90505b92915050565b60007f8b73c3c69bb8fe3d512ecc4cf759cc79239f7b179b0ffacaa9a75d522b39400f60e0516101005146306040516020016102899594939291906109ac565b60405160208183030381529060405280519060200120905090565b600073ffffffffffffffffffffffffffffffffffffffff168273ffffffffffffffffffffffffffffffffffffffff16036103165760006040517fec442f0500000000000000000000000000000000000000000000000000000000815260040161030d91906109ff565b60405180910390fd5b6103286000838361039e60201b60201c565b5050565b600080829050601f8151111561037957826040517f305a27a90000000000000000000000000000000000000000000000000000000081526004016103709190610a9f565b60405180910390fd5b80518161038590610af1565b60001c1760001b915050919050565b6000819050919050565b600073ffffffffffffffffffffffffffffffffffffffff168373ffffffffffffffffffffffffffffffffffffffff16036103f05780600260008282546103e49190610b87565b925050819055506104c3565b60008060008573ffffffffffffffffffffffffffffffffffffffff1673ffffffffffffffffffffffffffffffffffffffff1681526020019081526020016000205490508181101561047c578381836040517fe450d38c00000000000000000000000000000000000000000000000000000000815260040161047393929190610bbb565b60405180910390fd5b8181036000808673ffffffffffffffffffffffffffffffffffffffff1673ffffffffffffffffffffffffffffffffffffffff16815260200190815260200160002081905550505b600073ffffffffffffffffffffffffffffffffffffffff168273ffffffffffffffffffffffffffffffffffffffff160361050c5780600260008282540392505081905550610559565b806000808473ffffffffffffffffffffffffffffffffffffffff1673ffffffffffffffffffffffffffffffffffffffff168152602001908152602001600020600082825401925050819055505b8173ffffffffffffffffffffffffffffffffffffffff168373ffffffffffffffffffffffffffffffffffffffff167fddf252ad1be2c89b69c2b068fc378daa952ba7f163c4a11628f55a4df523b3ef836040516105b69190610bf2565b60405180910390a3505050565b600080fd5b600073ffffffffffffffffffffffffffffffffffffffff82169050919050565b60006105f3826105c8565b9050919050565b610603816105e8565b811461060e57600080fd5b50565b600081519050610620816105fa565b92915050565b60006020828403121561063c5761063b6105c3565b5b600061064a84828501610611565b91505092915050565b600081519050919050565b7f4e487b7100000000000000000000000000000000000000000000000000000000600052604160045260246000fd5b7f4e487b7100000000000000000000000000000000000000000000000000000000600052602260045260246000fd5b600060028204905060018216806106d457607f821691505b6020821081036106e7576106e661068d565b5b50919050565b60008190508160005260206000209050919050565b60006020601f8301049050919050565b600082821b905092915050565b60006008830261074f7fffffffffffffffffffffffffffffffffffffffffffffffffffffffffffffffff82610712565b6107598683610712565b95508019841693508086168417925050509392505050565b6000819050919050565b6000819050919050565b60006107a061079b61079684610771565b61077b565b610771565b9050919050565b6000819050919050565b6107ba83610785565b6107ce6107c6826107a7565b84845461071f565b825550505050565b600090565b6107e36107d6565b6107ee8184846107b1565b505050565b5b81811015610812576108076000826107db565b6001810190506107f4565b5050565b601f82111561085757610828816106ed565b61083184610702565b81016020851015610840578190505b61085461084c85610702565b8301826107f3565b50505b505050565b600082821c905092915050565b600061087a6000198460080261085c565b1980831691505092915050565b60006108938383610869565b9150826002028217905092915050565b6108ac82610653565b67ffffffffffffffff8111156108c5576108c461065e565b5b6108cf82546106bc565b6108da828285610816565b600060209050601f83116001811461090d57600084156108fb578287015190505b6109058582610887565b86555061096d565b601f19841661091b866106ed565b60005b828110156109435784890151825560018201915060208501945060208101905061091e565b86831015610960578489015161095c601f891682610869565b8355505b6001600288020188555050505b505050505050565b6000819050919050565b61098881610975565b82525050565b61099781610771565b82525050565b6109a6816105e8565b82525050565b600060a0820190506109c1600083018861097f565b6109ce602083018761097f565b6109db604083018661097f565b6109e8606083018561098e565b6109f5608083018461099d565b9695505050505050565b6000602082019050610a14600083018461099d565b92915050565b600082825260208201905092915050565b60005b83811015610a49578082015181840152602081019050610a2e565b60008484015250505050565b6000601f19601f8301169050919050565b6000610a7182610653565b610a7b8185610a1a565b9350610a8b818560208601610a2b565b610a9481610a55565b840191505092915050565b60006020820190508181036000830152610ab98184610a66565b905092915050565b600081519050919050565b6000819050602082019050919050565b6000610ae88251610975565b80915050919050565b6000610afc82610ac1565b82610b0684610acc565b9050610b1181610adc565b92506020821015610b5157610b4c7fffffffffffffffffffffffffffffffffffffffffffffffffffffffffffffffff83602003600802610712565b831692505b5050919050565b7f4e487b7100000000000000000000000000000000000000000000000000000000600052601160045260246000fd5b6000610b9282610771565b9150610b9d83610771565b9250828201905080821115610bb557610bb4610b58565b5b92915050565b6000606082019050610bd0600083018661099d565b610bdd602083018561098e565b610bea604083018461098e565b949350505050565b6000602082019050610c07600083018461098e565b92915050565b60805160a05160c05160e051610100516101205161014051611c5f610c676000396000610a8601526000610a4b01526000610f9b01526000610f7a015260006109460152600061099c015260006109c50152611c5f6000f3fe608060405234801561001057600080fd5b50600436106100ea5760003560e01c806370a082311161008c57806395d89b411161006657806395d89b4114610269578063a9059cbb14610287578063d505accf146102b7578063dd62ed3e146102d3576100ea565b806370a08231146101e55780637ecebe001461021557806384b0196e14610245576100ea565b806323b872dd116100c857806323b872dd1461015b5780632ff2e9dc1461018b578063313ce567146101a95780633644e515146101c7576100ea565b806306fdde03146100ef578063095ea7b31461010d57806318160ddd1461013d575b600080fd5b6100f7610303565b6040516101049190611488565b60405180910390f35b61012760048036038101906101229190611543565b610395565b604051610134919061159e565b60405180910390f35b6101456103b8565b60405161015291906115c8565b60405180910390f35b610175600480360381019061017091906115e3565b6103c2565b604051610182919061159e565b60405180910390f35b6101936103f1565b6040516101a091906115c8565b60405180910390f35b6101b16103ff565b6040516101be9190611652565b60405180910390f35b6101cf610408565b6040516101dc9190611686565b60405180910390f35b6101ff60048036038101906101fa91906116a1565b610417565b60405161020c91906115c8565b60405180910390f35b61022f600480360381019061022a91906116a1565b61045f565b60405161023c91906115c8565b60405180910390f35b61024d610471565b60405161026097969594939291906117d6565b60405180910390f35b61027161051b565b60405161027e9190611488565b60405180910390f35b6102a1600480360381019061029c9190611543565b6105ad565b6040516102ae919061159e565b60405180910390f35b6102d160048036038101906102cc91906118b2565b6105d0565b005b6102ed60048036038101906102e89190611954565b610718565b6040516102fa91906115c8565b60405180910390f35b606060038054610312906119c3565b80601f016020809104026020016040519081016040528092919081815260200182805461033e906119c3565b801561038b5780601f106103605761010080835404028352916020019161038b565b820191906000526020600020905b81548152906001019060200180831161036e57829003601f168201915b5050505050905090565b6000806103a061079f565b90506103ad8185856107a7565b600191505092915050565b6000600254905090565b6000806103cd61079f565b90506103da8582856107b9565b6103e585858561084e565b60019150509392505050565b69d3c21bcecceda100000081565b60006012905090565b6000610412610942565b905090565b60008060008373ffffffffffffffffffffffffffffffffffffffff1673ffffffffffffffffffffffffffffffffffffffff168152602001908152602001600020549050919050565b600061046a826109f9565b9050919050565b600060608060008060006060610485610a42565b61048d610a7d565b46306000801b600067ffffffffffffffff8111156104ae576104ad6119f4565b5b6040519080825280602002602001820160405280156104dc5781602001602082028036833780820191505090505b507f0f00000000000000000000000000000000000000000000000000000000000000959493929190965096509650965096509650965090919293949596565b60606004805461052a906119c3565b80601f0160208091040260200160405190810160405280929190818152602001828054610556906119c3565b80156105a35780601f10610578576101008083540402835291602001916105a3565b820191906000526020600020905b81548152906001019060200180831161058657829003601f168201915b5050505050905090565b6000806105b861079f565b90506105c581858561084e565b600191505092915050565b8342111561061557836040517f6279130200000000000000000000000000000000000000000000000000000000815260040161060c91906115c8565b60405180910390fd5b60007f6e71edae12b1b97f4d1f60370fef10105fa2faae0126114a169c64845d6126c98888886106448c610ab8565b8960405160200161065a96959493929190611a23565b604051602081830303815290604052805190602001209050600061067d82610b0f565b9050600061068d82878787610b29565b90508973ffffffffffffffffffffffffffffffffffffffff168173ffffffffffffffffffffffffffffffffffffffff161461070157808a6040517f4b800e460000000000000000000000000000000000000000000000000000000081526004016106f8929190611a84565b60405180910390fd5b61070c8a8a8a6107a7565b50505050505050505050565b6000600160008473ffffffffffffffffffffffffffffffffffffffff1673ffffffffffffffffffffffffffffffffffffffff16815260200190815260200160002060008373ffffffffffffffffffffffffffffffffffffffff1673ffffffffffffffffffffffffffffffffffffffff16815260200190815260200160002054905092915050565b600033905090565b6107b48383836001610b59565b505050565b60006107c58484610718565b90507fffffffffffffffffffffffffffffffffffffffffffffffffffffffffffffffff8110156108485781811015610838578281836040517ffb8f41b200000000000000000000000000000000000000000000000000000000815260040161082f93929190611aad565b60405180910390fd5b61084784848484036000610b59565b5b50505050565b600073ffffffffffffffffffffffffffffffffffffffff168373ffffffffffffffffffffffffffffffffffffffff16036108c05760006040517f96c6fd1e0000000000000000000000000000000000000000000000000000000081526004016108b79190611ae4565b60405180910390fd5b600073ffffffffffffffffffffffffffffffffffffffff168273ffffffffffffffffffffffffffffffffffffffff16036109325760006040517fec442f050000000000000000000000000000000000000000000000000000000081526004016109299190611ae4565b60405180910390fd5b61093d838383610d30565b505050565b60007f000000000000000000000000000000000000000000000000000000000000000073ffffffffffffffffffffffffffffffffffffffff163073ffffffffffffffffffffffffffffffffffffffff161480156109be57507f000000000000000000000000000000000000000000000000000000000000000046145b156109eb577f000000000000000000000000000000000000000000000000000000000000000090506109f6565b6109f3610f55565b90505b90565b6000600760008373ffffffffffffffffffffffffffffffffffffffff1673ffffffffffffffffffffffffffffffffffffffff168152602001908152602001600020549050919050565b6060610a7860057f0000000000000000000000000000000000000000000000000000000000000000610feb90919063ffffffff16565b905090565b6060610ab360067f0000000000000000000000000000000000000000000000000000000000000000610feb90919063ffffffff16565b905090565b6000600760008373ffffffffffffffffffffffffffffffffffffffff1673ffffffffffffffffffffffffffffffffffffffff1681526020019081526020016000206000815480929190600101919050559050919050565b6000610b22610b1c610942565b8361109b565b9050919050565b600080600080610b3b888888886110dc565b925092509250610b4b82826111d0565b829350505050949350505050565b600073ffffffffffffffffffffffffffffffffffffffff168473ffffffffffffffffffffffffffffffffffffffff1603610bcb5760006040517fe602df05000000000000000000000000000000000000000000000000000000008152600401610bc29190611ae4565b60405180910390fd5b600073ffffffffffffffffffffffffffffffffffffffff168373ffffffffffffffffffffffffffffffffffffffff1603610c3d5760006040517f94280d62000000000000000000000000000000000000000000000000000000008152600401610c349190611ae4565b60405180910390fd5b81600160008673ffffffffffffffffffffffffffffffffffffffff1673ffffffffffffffffffffffffffffffffffffffff16815260200190815260200160002060008573ffffffffffffffffffffffffffffffffffffffff1673ffffffffffffffffffffffffffffffffffffffff168152602001908152602001600020819055508015610d2a578273ffffffffffffffffffffffffffffffffffffffff168473ffffffffffffffffffffffffffffffffffffffff167f8c5be1e5ebec7d5bd14f71427d1e84f3dd0314c0f7b2291e5b200ac8c7c3b92584604051610d2191906115c8565b60405180910390a35b50505050565b600073ffffffffffffffffffffffffffffffffffffffff168373ffffffffffffffffffffffffffffffffffffffff1603610d82578060026000828254610d769190611b2e565b92505081905550610e55565b60008060008573ffffffffffffffffffffffffffffffffffffffff1673ffffffffffffffffffffffffffffffffffffffff16815260200190815260200160002054905081811015610e0e578381836040517fe450d38c000000000000000000000000000000000000000000000000000000008152600401610e0593929190611aad565b60405180910390fd5b8181036000808673ffffffffffffffffffffffffffffffffffffffff1673ffffffffffffffffffffffffffffffffffffffff16815260200190815260200160002081905550505b600073ffffffffffffffffffffffffffffffffffffffff168273ffffffffffffffffffffffffffffffffffffffff1603610e9e5780600260008282540392505081905550610eeb565b806000808473ffffffffffffffffffffffffffffffffffffffff1673ffffffffffffffffffffffffffffffffffffffff168152602001908152602001600020600082825401925050819055505b8173ffffffffffffffffffffffffffffffffffffffff168373ffffffffffffffffffffffffffffffffffffffff167fddf252ad1be2c89b69c2b068fc378daa952ba7f163c4a11628f55a4df523b3ef83604051610f4891906115c8565b60405180910390a3505050565b60007f8b73c3c69bb8fe3d512ecc4cf759cc79239f7b179b0ffacaa9a75d522b39400f7f00000000000000000000000000000000000000000000000000000000000000007f00000000000000000000000000000000000000000000000000000000000000004630604051602001610fd0959493929190611b62565b60405160208183030381529060405280519060200120905090565b606060ff60001b83146110085761100183611334565b9050611095565b818054611014906119c3565b80601f0160208091040260200160405190810160405280929190818152602001828054611040906119c3565b801561108d5780601f106110625761010080835404028352916020019161108d565b820191906000526020600020905b81548152906001019060200180831161107057829003601f168201915b505050505090505b92915050565b60006040517f190100000000000000000000000000000000000000000000000000000000000081528360028201528260228201526042812091505092915050565b60008060007f7fffffffffffffffffffffffffffffff5d576e7357a4501ddfe92f46681b20a08460001c111561111c5760006003859250925092506111c6565b6000600188888888604051600081526020016040526040516111419493929190611bb5565b6020604051602081039080840390855afa158015611163573d6000803e3d6000fd5b505050602060405103519050600073ffffffffffffffffffffffffffffffffffffffff168173ffffffffffffffffffffffffffffffffffffffff16036111b757600060016000801b935093509350506111c6565b8060008060001b935093509350505b9450945094915050565b600060038111156111e4576111e3611bfa565b5b8260038111156111f7576111f6611bfa565b5b0315611330576001600381111561121157611210611bfa565b5b82600381111561122457611223611bfa565b5b0361125b576040517ff645eedf00000000000000000000000000000000000000000000000000000000815260040160405180910390fd5b6002600381111561126f5761126e611bfa565b5b82600381111561128257611281611bfa565b5b036112c7578060001c6040517ffce698f70000000000000000000000000000000000000000000000000000000081526004016112be91906115c8565b60405180910390fd5b6003808111156112da576112d9611bfa565b5b8260038111156112ed576112ec611bfa565b5b0361132f57806040517fd78bce0c0000000000000000000000000000000000000000000000000000000081526004016113269190611686565b60405180910390fd5b5b5050565b60606000611341836113a8565b90506000602067ffffffffffffffff8111156113605761135f6119f4565b5b6040519080825280601f01601f1916602001820160405280156113925781602001600182028036833780820191505090505b5090508181528360208201528092505050919050565b60008060ff8360001c169050601f8111156113ef576040517fb3512b0c00000000000000000000000000000000000000000000000000000000815260040160405180910390fd5b80915050919050565b600081519050919050565b600082825260208201905092915050565b60005b83811015611432578082015181840152602081019050611417565b60008484015250505050565b6000601f19601f8301169050919050565b600061145a826113f8565b6114648185611403565b9350611474818560208601611414565b61147d8161143e565b840191505092915050565b600060208201905081810360008301526114a2818461144f565b905092915050565b600080fd5b600073ffffffffffffffffffffffffffffffffffffffff82169050919050565b60006114da826114af565b9050919050565b6114ea816114cf565b81146114f557600080fd5b50565b600081359050611507816114e1565b92915050565b6000819050919050565b6115208161150d565b811461152b57600080fd5b50565b60008135905061153d81611517565b92915050565b6000806040838503121561155a576115596114aa565b5b6000611568858286016114f8565b92505060206115798582860161152e565b9150509250929050565b60008115159050919050565b61159881611583565b82525050565b60006020820190506115b3600083018461158f565b92915050565b6115c28161150d565b82525050565b60006020820190506115dd60008301846115b9565b92915050565b6000806000606084860312156115fc576115fb6114aa565b5b600061160a868287016114f8565b935050602061161b868287016114f8565b925050604061162c8682870161152e565b9150509250925092565b600060ff82169050919050565b61164c81611636565b82525050565b60006020820190506116676000830184611643565b92915050565b6000819050919050565b6116808161166d565b82525050565b600060208201905061169b6000830184611677565b92915050565b6000602082840312156116b7576116b66114aa565b5b60006116c5848285016114f8565b91505092915050565b60007fff0000000000000000000000000000000000000000000000000000000000000082169050919050565b611703816116ce565b82525050565b611712816114cf565b82525050565b600081519050919050565b600082825260208201905092915050565b6000819050602082019050919050565b61174d8161150d565b82525050565b600061175f8383611744565b60208301905092915050565b6000602082019050919050565b600061178382611718565b61178d8185611723565b935061179883611734565b8060005b838110156117c95781516117b08882611753565b97506117bb8361176b565b92505060018101905061179c565b5085935050505092915050565b600060e0820190506117eb600083018a6116fa565b81810360208301526117fd818961144f565b90508181036040830152611811818861144f565b905061182060608301876115b9565b61182d6080830186611709565b61183a60a0830185611677565b81810360c083015261184c8184611778565b905098975050505050505050565b61186381611636565b811461186e57600080fd5b50565b6000813590506118808161185a565b92915050565b61188f8161166d565b811461189a57600080fd5b50565b6000813590506118ac81611886565b92915050565b600080600080600080600060e0888a0312156118d1576118d06114aa565b5b60006118df8a828b016114f8565b97505060206118f08a828b016114f8565b96505060406119018a828b0161152e565b95505060606119128a828b0161152e565b94505060806119238a828b01611871565b93505060a06119348a828b0161189d565b92505060c06119458a828b0161189d565b91505092959891949750929550565b6000806040838503121561196b5761196a6114aa565b5b6000611979858286016114f8565b925050602061198a858286016114f8565b9150509250929050565b7f4e487b7100000000000000000000000000000000000000000000000000000000600052602260045260246000fd5b600060028204905060018216806119db57607f821691505b6020821081036119ee576119ed611994565b5b50919050565b7f4e487b7100000000000000000000000000000000000000000000000000000000600052604160045260246000fd5b600060c082019050611a386000830189611677565b611a456020830188611709565b611a526040830187611709565b611a5f60608301866115b9565b611a6c60808301856115b9565b611a7960a08301846115b9565b979650505050505050565b6000604082019050611a996000830185611709565b611aa66020830184611709565b9392505050565b6000606082019050611ac26000830186611709565b611acf60208301856115b9565b611adc60408301846115b9565b949350505050565b6000602082019050611af96000830184611709565b92915050565b7f4e487b7100000000000000000000000000000000000000000000000000000000600052601160045260246000fd5b6000611b398261150d565b9150611b448361150d565b9250828201905080821115611b5c57611b5b611aff565b5b92915050565b600060a082019050611b776000830188611677565b611b846020830187611677565b611b916040830186611677565b611b9e60608301856115b9565b611bab6080830184611709565b9695505050505050565b6000608082019050611bca6000830187611677565b611bd76020830186611643565b611be46040830185611677565b611bf16060830184611677565b95945050505050565b7f4e487b7100000000000000000000000000000000000000000000000000000000600052602160045260246000fdfea2646970667358221220f7b20e7a60ed682db4bbb4cbb2b484fba3165adec17e532a6b66c17b5533a7fa64736f6c634300081c0033",
  "linkReferences": {},
  "deployedLinkReferences": {}
}