{
  "_format": "hh-sol-artifact-1",
  "contractName": "Idea",
  "sourceName": "contracts/Idea.sol",
  "abi": [
    {
      "inputs": [
        {
          "internalType": "address",
          "name": "_ownerAddress",
          "type": "address"
        },
        {
          "internalType": "contract IdeaToken",
          "name": "_ideaToken",
          "type": "address"
        },
        {
          "internalType": "uint256",
          "name": "_ideaDuration",
          "type": "uint256"
        }
      ],
      "stateMutability": "nonpayable",
      "type": "constructor"
    },
    {
      "inputs": [
        {
          "internalType": "string",
          "name": "",
          "type": "string"
        },
        {
          "internalType": "int128",
          "name": "",
          "type": "int128"
        }
      ],
      "name": "InvalidProposalVote",
      "type": "error"
    },
    {
      "inputs": [
        {
          "internalType": "string",
          "name": "",
          "type": "string"
        },
        {
          "internalType": "int128",
          "name": "",
          "type": "int128"
        }
      ],
      "name": "InvalidStatusVote",
      "type": "error"
    },
    {
      "inputs": [
        {
          "internalType": "string",
          "name": "",
          "type": "string"
        },
        {
          "internalType": "uint256",
          "name": "",
          "type": "uint256"
        }
      ],
      "name": "TimeExpired",
      "type": "error"
    },
    {
      "anonymous": false,
      "inputs": [
        {
          "indexed": false,
          "internalType": "uint256",
          "name": "extensionLength",
          "type": "uint256"
        }
      ],
      "name": "IdeaExtended",
      "type": "event"
    },
    {
      "anonymous": false,
      "inputs": [
        {
          "indexed": false,
          "internalType": "int128",
          "name": "commentID",
          "type": "int128"
        }
      ],
      "name": "ProposalAdded",
      "type": "event"
    },
    {
      "anonymous": false,
      "inputs": [
        {
          "indexed": false,
          "internalType": "address",
          "name": "voter",
          "type": "address"
        },
        {
          "indexed": false,
          "internalType": "int128",
          "name": "commentID",
          "type": "int128"
        },
        {
          "indexed": false,
          "internalType": "int128",
          "name": "voteDelta",
          "type": "int128"
        }
      ],
      "name": "ProposalVoted",
      "type": "event"
    },
    {
      "anonymous": false,
      "inputs": [
        {
          "indexed": true,
          "internalType": "address",
          "name": "staker",
          "type": "address"
        },
        {
          "indexed": false,
          "internalType": "int128",
          "name": "amount",
          "type": "int128"
        }
      ],
      "name": "Staked",
      "type": "event"
    },
    {
      "anonymous": false,
      "inputs": [
        {
          "indexed": false,
          "internalType": "enum Idea.StatusOption",
          "name": "winningOption",
          "type": "uint8"
        },
        {
          "indexed": false,
          "internalType": "uint256",
          "name": "finalTime",
          "type": "uint256"
        }
      ],
      "name": "StatusVoteEnded",
      "type": "event"
    },
    {
      "anonymous": false,
      "inputs": [
        {
          "indexed": false,
          "internalType": "string",
          "name": "msg",
          "type": "string"
        }
      ],
      "name": "StatusVoteStarted",
      "type": "event"
    },
    {
      "anonymous": false,
      "inputs": [
        {
          "indexed": true,
          "internalType": "address",
          "name": "voter",
          "type": "address"
        },
        {
          "indexed": false,
          "internalType": "enum Idea.StatusOption",
          "name": "option",
          "type": "uint8"
        },
        {
          "indexed": false,
          "internalType": "int128",
          "name": "newVoteCount",
          "type": "int128"
        }
      ],
      "name": "StatusVoted",
      "type": "event"
    },
    {
      "inputs": [],
      "name": "endStatusVote",
      "outputs": [],
      "stateMutability": "nonpayable",
      "type": "function"
    },
    {
      "inputs": [],
      "name": "getExtensionCount",
      "outputs": [
        {
          "internalType": "int16",
          "name": "",
          "type": "int16"
        }
      ],
      "stateMutability": "view",
      "type": "function"
    },
    {
      "inputs": [],
      "name": "getIdeaState",
      "outputs": [
        {
          "internalType": "bool",
          "name": "",
          "type": "bool"
        }
      ],
      "stateMutability": "view",
      "type": "function"
    },
    {
      "inputs": [],
      "name": "getIdeaTimes",
      "outputs": [
        {
          "internalType": "uint256",
          "name": "startTime",
          "type": "uint256"
        },
        {
          "internalType": "uint256",
          "name": "endTime",
          "type": "uint256"
        },
        {
          "internalType": "uint256",
          "name": "duration",
          "type": "uint256"
        },
        {
          "internalType": "uint256",
          "name": "statusThreshold",
          "type": "uint256"
        }
      ],
      "stateMutability": "view",
      "type": "function"
    },
    {
      "inputs": [],
      "name": "getOwnerAddress",
      "outputs": [
        {
          "internalType": "address",
          "name": "",
          "type": "address"
        }
      ],
      "stateMutability": "view",
      "type": "function"
    },
    {
      "inputs": [],
      "name": "getProposalVoteStatus",
      "outputs": [
        {
          "internalType": "bool",
          "name": "",
          "type": "bool"
        }
      ],
      "stateMutability": "view",
      "type": "function"
    },
    {
      "inputs": [
        {
          "internalType": "address",
          "name": "stakerAddress",
          "type": "address"
        }
      ],
      "name": "getStakedAmount",
      "outputs": [
        {
          "internalType": "int128",
          "name": "",
          "type": "int128"
        }
      ],
      "stateMutability": "view",
      "type": "function"
    },
    {
      "inputs": [],
      "name": "getStatusVoteData",
      "outputs": [
        {
          "internalType": "int128",
          "name": "endVotes",
          "type": "int128"
        },
        {
          "internalType": "int128",
          "name": "cancelVotes",
          "type": "int128"
        },
        {
          "internalType": "int128",
          "name": "extendVotes",
          "type": "int128"
        },
        {
          "internalType": "int16",
          "name": "extensionCount",
          "type": "int16"
        },
        {
          "internalType": "uint256",
          "name": "thresholdTime",
          "type": "uint256"
        }
      ],
      "stateMutability": "view",
      "type": "function"
    },
    {
      "inputs": [],
      "name": "getStatusVoteStatus",
      "outputs": [
        {
          "internalType": "bool",
          "name": "",
          "type": "bool"
        }
      ],
      "stateMutability": "view",
      "type": "function"
    },
    {
      "inputs": [
        {
          "internalType": "int128",
          "name": "commentID",
          "type": "int128"
        },
        {
          "internalType": "address",
          "name": "stakerAddress",
          "type": "address"
        }
      ],
      "name": "getTokenVotes",
      "outputs": [
        {
          "internalType": "int128",
          "name": "",
          "type": "int128"
        }
      ],
      "stateMutability": "view",
      "type": "function"
    },
    {
      "inputs": [],
      "name": "getTotalStaked",
      "outputs": [
        {
          "internalType": "int128",
          "name": "",
          "type": "int128"
        }
      ],
      "stateMutability": "view",
      "type": "function"
    },
    {
      "inputs": [
        {
          "internalType": "int128",
          "name": "commentID",
          "type": "int128"
        }
      ],
      "name": "getTotalTokenVotes",
      "outputs": [
        {
          "internalType": "int128",
          "name": "",
          "type": "int128"
        }
      ],
      "stateMutability": "view",
      "type": "function"
    },
    {
      "inputs": [],
      "name": "getWinningProposal",
      "outputs": [
        {
          "internalType": "int128",
          "name": "",
          "type": "int128"
        },
        {
          "internalType": "int128",
          "name": "",
          "type": "int128"
        }
      ],
      "stateMutability": "view",
      "type": "function"
    },
    {
      "inputs": [],
      "name": "getWinningStatus",
      "outputs": [
        {
          "internalType": "enum Idea.StatusOption",
          "name": "",
          "type": "uint8"
        }
      ],
      "stateMutability": "view",
      "type": "function"
    },
    {
      "inputs": [
        {
          "internalType": "int128",
          "name": "commentID",
          "type": "int128"
        }
      ],
      "name": "nominateComment",
      "outputs": [],
      "stateMutability": "nonpayable",
      "type": "function"
    },
    {
      "inputs": [],
      "name": "ownerWithdraw",
      "outputs": [],
      "stateMutability": "nonpayable",
      "type": "function"
    },
    {
      "inputs": [
        {
          "internalType": "uint256",
          "name": "amount",
          "type": "uint256"
        },
        {
          "internalType": "uint256",
          "name": "deadline",
          "type": "uint256"
        },
        {
          "internalType": "uint8",
          "name": "v",
          "type": "uint8"
        },
        {
          "internalType": "bytes32",
          "name": "r",
          "type": "bytes32"
        },
        {
          "internalType": "bytes32",
          "name": "s",
          "type": "bytes32"
        }
      ],
      "name": "stakeTokens",
      "outputs": [],
      "stateMutability": "nonpayable",
      "type": "function"
    },
    {
      "inputs": [],
      "name": "startStatusVote",
      "outputs": [],
      "stateMutability": "nonpayable",
      "type": "function"
    },
    {
      "inputs": [
        {
          "internalType": "int128",
          "name": "commentID",
          "type": "int128"
        },
        {
          "internalType": "int128",
          "name": "voteDelta",
          "type": "int128"
        }
      ],
      "name": "voteOnProposal",
      "outputs": [],
      "stateMutability": "nonpayable",
      "type": "function"
    },
    {
      "inputs": [
        {
          "internalType": "enum Idea.StatusOption",
          "name": "option",
          "type": "uint8"
        }
      ],
      "name": "voteOnStatus",
      "outputs": [],
      "stateMutability": "nonpayable",
      "type": "function"
    },
    {
      "inputs": [],
      "name": "withdrawStake",
      "outputs": [],
      "stateMutability": "nonpayable",
      "type": "function"
    }
  ],
  "bytecode": "0x608060405234801561001057600080fd5b50604051614c81380380614c81833981810160405281019061003291906102cd565b82600160006101000a81548173ffffffffffffffffffffffffffffffffffffffff021916908373ffffffffffffffffffffffffffffffffffffffff160217905550816000806101000a81548173ffffffffffffffffffffffffffffffffffffffff021916908373ffffffffffffffffffffffffffffffffffffffff160217905550806004819055504260058190555080426100cd919061034f565b60068190555060646050826100e29190610383565b6100ec91906103f4565b6005546100f9919061034f565b6008600301819055507fffffffffffffffffffffffffffffffffffffffffffffffffffffffffffffffff600860020160106101000a81548161ffff021916908360010b61ffff1602179055506001600c60006101000a81548160ff0219169083151502179055506000600760026101000a81548160ff0219169083151502179055506000600760006101000a81548160ff0219169083151502179055506000600760016101000a81548160ff0219169083151502179055506000600360006101000a8154816fffffffffffffffffffffffffffffffff0219169083600f0b6fffffffffffffffffffffffffffffffff160217905550505050610425565b600080fd5b600073ffffffffffffffffffffffffffffffffffffffff82169050919050565b6000610226826101fb565b9050919050565b6102368161021b565b811461024157600080fd5b50565b6000815190506102538161022d565b92915050565b60006102648261021b565b9050919050565b61027481610259565b811461027f57600080fd5b50565b6000815190506102918161026b565b92915050565b6000819050919050565b6102aa81610297565b81146102b557600080fd5b50565b6000815190506102c7816102a1565b92915050565b6000806000606084860312156102e6576102e56101f6565b5b60006102f486828701610244565b935050602061030586828701610282565b9250506040610316868287016102b8565b9150509250925092565b7f4e487b7100000000000000000000000000000000000000000000000000000000600052601160045260246000fd5b600061035a82610297565b915061036583610297565b925082820190508082111561037d5761037c610320565b5b92915050565b600061038e82610297565b915061039983610297565b92508282026103a781610297565b915082820484148315176103be576103bd610320565b5b5092915050565b7f4e487b7100000000000000000000000000000000000000000000000000000000600052601260045260246000fd5b60006103ff82610297565b915061040a83610297565b92508261041a576104196103c5565b5b828204905092915050565b61484d806104346000396000f3fe608060405234801561001057600080fd5b50600436106101375760003560e01c806365f38090116100b8578063b27a42ef1161007c578063b27a42ef146102f6578063bed9d86114610314578063c9096d461461031e578063ce8901c91461033c578063ced270ec1461035a578063d15704c71461037657610137565b806365f380901461023a5780636cc5d06d1461026a5780637db0338b14610286578063965cee79146102b6578063a5134620146102d757610137565b806323640a42116100ff57806323640a42146101ba5780633e1b4627146101c45780634311de8f146101e257806347618847146101ec5780634da6a5561461020a57610137565b80630917e7761461013c5780630a01a5331461015a5780630b424551146101765780630c4f65bd146101925780630c85aa60146101b0575b600080fd5b610144610398565b60405161015191906130d4565b60405180910390f35b610174600480360381019061016f9190613199565b6103af565b005b610190600480360381019061018b9190613240565b6107d0565b005b61019a610b52565b6040516101a791906132ae565b60405180910390f35b6101b8610b7c565b005b6101c2610e75565b005b6101cc611214565b6040516101d99190613340565b60405180910390f35b6101ea61122e565b005b6101f461147f565b6040516102019190613376565b60405180910390f35b610224600480360381019061021f91906133bd565b6114bd565b60405161023191906130d4565b60405180910390f35b610254600480360381019061024f91906133ea565b611516565b60405161026191906130d4565b60405180910390f35b610284600480360381019061027f919061342a565b61162b565b005b6102a0600480360381019061029b9190613240565b611d8c565b6040516102ad91906130d4565b60405180910390f35b6102be611e63565b6040516102ce9493929190613479565b60405180910390f35b6102df611e86565b6040516102ed9291906134be565b60405180910390f35b6102fe611ebd565b60405161030b9190613503565b60405180910390f35b61031c611ed7565b005b61032661223b565b6040516103339190613376565b60405180910390f35b610344612252565b6040516103519190613376565b60405180910390f35b610374600480360381019061036f9190613543565b612269565b005b61037e612d2e565b60405161038f959493929190613570565b60405180910390f35b6000600360009054906101000a9004600f0b905090565b600760019054906101000a900460ff161580156103d95750600760009054906101000a900460ff16155b80156103f25750600760029054906101000a900460ff16155b80156103ff575060065442105b61043e576040517f08c379a000000000000000000000000000000000000000000000000000000000815260040161043590613620565b60405180910390fd5b60008511610481576040517f08c379a00000000000000000000000000000000000000000000000000000000081526004016104789061368c565b60405180910390fd5b600260003373ffffffffffffffffffffffffffffffffffffffff1673ffffffffffffffffffffffffffffffffffffffff16815260200190815260200160002060000160109054906101000a900460ff1615610511576040517f08c379a0000000000000000000000000000000000000000000000000000000008152600401610508906136f8565b60405180910390fd5b60008054906101000a900473ffffffffffffffffffffffffffffffffffffffff1673ffffffffffffffffffffffffffffffffffffffff1663d505accf333088888888886040518863ffffffff1660e01b81526004016105769796959493929190613736565b600060405180830381600087803b15801561059057600080fd5b505af11580156105a4573d6000803e3d6000fd5b5050505060008054906101000a900473ffffffffffffffffffffffffffffffffffffffff1673ffffffffffffffffffffffffffffffffffffffff166323b872dd3330886040518463ffffffff1660e01b8152600401610605939291906137a5565b6020604051808303816000875af1158015610624573d6000803e3d6000fd5b505050506040513d601f19601f820116820180604052508101906106489190613808565b610687576040517f08c379a000000000000000000000000000000000000000000000000000000000815260040161067e90613881565b60405180910390fd5b600085905080600260003373ffffffffffffffffffffffffffffffffffffffff1673ffffffffffffffffffffffffffffffffffffffff16815260200190815260200160002060000160008282829054906101000a9004600f0b6106ea91906138d0565b92506101000a8154816fffffffffffffffffffffffffffffffff0219169083600f0b6fffffffffffffffffffffffffffffffff16021790555080600360008282829054906101000a9004600f0b61074191906138d0565b92506101000a8154816fffffffffffffffffffffffffffffffff0219169083600f0b6fffffffffffffffffffffffffffffffff1602179055503373ffffffffffffffffffffffffffffffffffffffff167f664eb7c2e19a44640a291607e8f0bb04f90e02b8af9606c3bc295d7cfd66edca826040516107c091906130d4565b60405180910390a2505050505050565b600c60009054906101000a900460ff1680156107f95750600760029054906101000a900460ff16155b80156108125750600760009054906101000a900460ff16155b801561082b5750600760019054906101000a900460ff16155b8015610838575060065442105b610877576040517f08c379a000000000000000000000000000000000000000000000000000000000815260040161086e90613984565b60405180910390fd5b6000600260003373ffffffffffffffffffffffffffffffffffffffff1673ffffffffffffffffffffffffffffffffffffffff16815260200190815260200160002060000160009054906101000a9004600f0b600f0b1380156109265750600260003373ffffffffffffffffffffffffffffffffffffffff1673ffffffffffffffffffffffffffffffffffffffff16815260200190815260200160002060000160109054906101000a900460ff16155b610965576040517f08c379a000000000000000000000000000000000000000000000000000000000815260040161095c906139f0565b60405180910390fd5b6000600d600101600083600f0b600f0b815260200190815260200160002060009054906101000a9004600f0b600f0b146109d4576040517f08c379a00000000000000000000000000000000000000000000000000000000081526004016109cb90613a5c565b60405180910390fd5b600d6000016001816001815401808255809150500390600052602060002090505060006001600d60000180549050610a0c9190613a7c565b9050600181610a1b9190613ab0565b600d600101600084600f0b600f0b815260200190815260200160002060006101000a8154816fffffffffffffffffffffffffffffffff0219169083600f0b6fffffffffffffffffffffffffffffffff1602179055506000600d6000018281548110610a8957610a88613ae4565b5b90600052602060002090600202019050828160000160006101000a8154816fffffffffffffffffffffffffffffffff0219169083600f0b6fffffffffffffffffffffffffffffffff16021790555060008160000160106101000a8154816fffffffffffffffffffffffffffffffff0219169083600f0b6fffffffffffffffffffffffffffffffff1602179055507f0b12367280541e7ee3476c9a18de62f09716de8abc4f1832c6e9045195676e2383604051610b4591906130d4565b60405180910390a1505050565b6000600160009054906101000a900473ffffffffffffffffffffffffffffffffffffffff16905090565b600760029054906101000a900460ff16610bcb576040517f08c379a0000000000000000000000000000000000000000000000000000000008152600401610bc290613b5f565b60405180910390fd5b6006544211610c0f576040517f08c379a0000000000000000000000000000000000000000000000000000000008152600401610c0690613bcb565b60405180910390fd5b6000600760026101000a81548160ff0219169083151502179055506000600860010160009054906101000a9004600f0b600860000160009054906101000a9004600f0b610c5c91906138d0565b9050600081600f0b03610cd5576001600760006101000a81548160ff0219169083151502179055507f1680ed9f3e0861de44450dd89f8254900a5b92447c8877c0bfb21bb1b0d5a016600860010160109054906101000a900460ff1642604051610cc7929190613beb565b60405180910390a150610e73565b6000600182600f0b148015610cff57506001600860000160009054906101000a9004600f0b600f0b145b15610d0d5760019050610dc9565b600282600f0b148015610d3657506001600860000160009054906101000a9004600f0b600f0b12155b15610d445760019050610dc8565b600382600f0b148015610d6d57506002600860000160009054906101000a9004600f0b600f0b12155b15610d7b5760019050610dc7565b600482600f0b12158015610dbc5750604b826064600860000160009054906101000a9004600f0b610dac9190613c14565b610db69190613c80565b600f0b12155b15610dc657600190505b5b5b5b8015610def576001600760016101000a81548160ff021916908315150217905550610e25565b600082600f0b1315610e0857610e03612d99565b610e24565b6001600760006101000a81548160ff0219169083151502179055505b5b7f1680ed9f3e0861de44450dd89f8254900a5b92447c8877c0bfb21bb1b0d5a016600860010160109054906101000a900460ff1642604051610e68929190613beb565b60405180910390a150505b565b600760009054906101000a900460ff16158015610e9f5750600760019054906101000a900460ff16155b8015610eb85750600760029054906101000a900460ff16155b8015610ec5575060065442105b610f04576040517f08c379a0000000000000000000000000000000000000000000000000000000008152600401610efb90613d36565b60405180910390fd5b6000600260003373ffffffffffffffffffffffffffffffffffffffff1673ffffffffffffffffffffffffffffffffffffffff16815260200190815260200160002060000160009054906101000a9004600f0b600f0b138015610fb35750600260003373ffffffffffffffffffffffffffffffffffffffff1673ffffffffffffffffffffffffffffffffffffffff16815260200190815260200160002060000160109054906101000a900460ff16155b610ff2576040517f08c379a0000000000000000000000000000000000000000000000000000000008152600401610fe990613dc8565b60405180910390fd5b60086003015442101561103a576040517f08c379a000000000000000000000000000000000000000000000000000000000815260040161103190613e5a565b60405180910390fd5b6000600c60006101000a81548160ff0219169083151502179055506001600760026101000a81548160ff0219169083151502179055506000600860000160006101000a8154816fffffffffffffffffffffffffffffffff0219169083600f0b6fffffffffffffffffffffffffffffffff1602179055506000600860000160106101000a8154816fffffffffffffffffffffffffffffffff0219169083600f0b6fffffffffffffffffffffffffffffffff1602179055506000600860010160006101000a8154816fffffffffffffffffffffffffffffffff0219169083600f0b6fffffffffffffffffffffffffffffffff1602179055506002600860010160106101000a81548160ff02191690836002811115611159576111586132c9565b5b02179055506000600860020160006101000a8154816fffffffffffffffffffffffffffffffff0219169083600f0b6fffffffffffffffffffffffffffffffff1602179055506001600860020160108282829054906101000a900460010b6111c09190613e7a565b92506101000a81548161ffff021916908360010b61ffff1602179055507f55a8121b69bf92c5342fc00a96084340b680613c77853bbe654ba7f4906a39b460405161120a90613f20565b60405180910390a1565b6000600860010160109054906101000a900460ff16905090565b600160009054906101000a900473ffffffffffffffffffffffffffffffffffffffff1673ffffffffffffffffffffffffffffffffffffffff163373ffffffffffffffffffffffffffffffffffffffff16146112be576040517f08c379a00000000000000000000000000000000000000000000000000000000081526004016112b590613f8c565b60405180910390fd5b600760019054906101000a900460ff1680156112db575060065442115b61131a576040517f08c379a000000000000000000000000000000000000000000000000000000000815260040161131190613ff8565b60405180910390fd5b6000600360009054906101000a9004600f0b6fffffffffffffffffffffffffffffffff16905060008054906101000a900473ffffffffffffffffffffffffffffffffffffffff1673ffffffffffffffffffffffffffffffffffffffff1663a9059cbb600160009054906101000a900473ffffffffffffffffffffffffffffffffffffffff16836040518363ffffffff1660e01b81526004016113bd929190614018565b6020604051808303816000875af11580156113dc573d6000803e3d6000fd5b505050506040513d601f19601f820116820180604052508101906114009190613808565b61143f576040517f08c379a00000000000000000000000000000000000000000000000000000000081526004016114369061408d565b60405180910390fd5b6000600360006101000a8154816fffffffffffffffffffffffffffffffff0219169083600f0b6fffffffffffffffffffffffffffffffff16021790555050565b6000600760009054906101000a900460ff161580156114ab5750600760019054906101000a900460ff16155b80156114b8575060065442105b905090565b6000600260008373ffffffffffffffffffffffffffffffffffffffff1673ffffffffffffffffffffffffffffffffffffffff16815260200190815260200160002060000160009054906101000a9004600f0b9050919050565b600080600d600101600085600f0b600f0b815260200190815260200160002060009054906101000a9004600f0b9050600081600f0b1361158b576040517f08c379a00000000000000000000000000000000000000000000000000000000081526004016115829061411f565b60405180910390fd5b600060018261159a919061413f565b6fffffffffffffffffffffffffffffffff169050600d60000181815481106115c5576115c4613ae4565b5b906000526020600020906002020160010160008573ffffffffffffffffffffffffffffffffffffffff1673ffffffffffffffffffffffffffffffffffffffff16815260200190815260200160002060009054906101000a9004600f0b9250505092915050565b6000600260003373ffffffffffffffffffffffffffffffffffffffff1673ffffffffffffffffffffffffffffffffffffffff16815260200190815260200160002060000160009054906101000a9004600f0b600f0b1380156116da5750600260003373ffffffffffffffffffffffffffffffffffffffff1673ffffffffffffffffffffffffffffffffffffffff16815260200190815260200160002060000160109054906101000a900460ff16155b611719576040517f08c379a0000000000000000000000000000000000000000000000000000000008152600401611710906139f0565b60405180910390fd5b600c60009054906101000a900460ff1680156117425750600760029054906101000a900460ff16155b801561175b5750600760009054906101000a900460ff16155b80156117745750600760019054906101000a900460ff16155b8015611781575060065442105b8015611791575060086003015442105b6117d0576040517f08c379a00000000000000000000000000000000000000000000000000000000081526004016117c790613984565b60405180910390fd5b6000600d600101600084600f0b600f0b815260200190815260200160002060009054906101000a9004600f0b9050600081600f0b03611844576040517f08c379a000000000000000000000000000000000000000000000000000000000815260040161183b906141f3565b60405180910390fd5b6000600182611853919061413f565b6fffffffffffffffffffffffffffffffff1690506000600260003373ffffffffffffffffffffffffffffffffffffffff1673ffffffffffffffffffffffffffffffffffffffff16815260200190815260200160002060010160009054906101000a9004600f0b90506000600d60000183815481106118d4576118d3613ae4565b5b906000526020600020906002020160010160003373ffffffffffffffffffffffffffffffffffffffff1673ffffffffffffffffffffffffffffffffffffffff16815260200190815260200160002060009054906101000a9004600f0b90506000600260003373ffffffffffffffffffffffffffffffffffffffff1673ffffffffffffffffffffffffffffffffffffffff16815260200190815260200160002060000160009054906101000a9004600f0b905080600f0b868461199691906138d0565b600f0b13156119e75785836119ab91906138d0565b6040517f7fecd6850000000000000000000000000000000000000000000000000000000081526004016119de9190614285565b60405180910390fd5b600086836119f591906138d0565b600f0b1215611a46578583611a0a91906138d0565b6040517f7fecd685000000000000000000000000000000000000000000000000000000008152600401611a3d91906142ff565b60405180910390fd5b85600d6000018581548110611a5e57611a5d613ae4565b5b906000526020600020906002020160010160003373ffffffffffffffffffffffffffffffffffffffff1673ffffffffffffffffffffffffffffffffffffffff16815260200190815260200160002060008282829054906101000a9004600f0b611ac791906138d0565b92506101000a8154816fffffffffffffffffffffffffffffffff0219169083600f0b6fffffffffffffffffffffffffffffffff16021790555085600260003373ffffffffffffffffffffffffffffffffffffffff1673ffffffffffffffffffffffffffffffffffffffff16815260200190815260200160002060010160008282829054906101000a9004600f0b611b5e91906138d0565b92506101000a8154816fffffffffffffffffffffffffffffffff0219169083600f0b6fffffffffffffffffffffffffffffffff16021790555085600d6000018581548110611baf57611bae613ae4565b5b906000526020600020906002020160000160108282829054906101000a9004600f0b611bdb91906138d0565b92506101000a8154816fffffffffffffffffffffffffffffffff0219169083600f0b6fffffffffffffffffffffffffffffffff160217905550600d60020160000160109054906101000a9004600f0b600f0b600d6000018581548110611c4457611c43613ae4565b5b906000526020600020906002020160000160109054906101000a9004600f0b600f0b12611d4857604051806040016040528088600f0b8152602001600d6000018681548110611c9657611c95613ae4565b5b906000526020600020906002020160000160109054906101000a9004600f0b600f0b815250600d60020160008201518160000160006101000a8154816fffffffffffffffffffffffffffffffff0219169083600f0b6fffffffffffffffffffffffffffffffff16021790555060208201518160000160106101000a8154816fffffffffffffffffffffffffffffffff0219169083600f0b6fffffffffffffffffffffffffffffffff1602179055509050505b7ff034bd45cbf9670e698b3b403e4430692e44fe05f3af767bfaf2ee15554bc3c1338888604051611d7b9392919061432d565b60405180910390a150505050505050565b600080600d600101600084600f0b600f0b815260200190815260200160002060009054906101000a9004600f0b9050600081600f0b13611e01576040517f08c379a0000000000000000000000000000000000000000000000000000000008152600401611df89061411f565b60405180910390fd5b6000600182611e10919061413f565b6fffffffffffffffffffffffffffffffff169050600d6000018181548110611e3b57611e3a613ae4565b5b906000526020600020906002020160000160109054906101000a9004600f0b92505050919050565b600080600080600554600654600454600860030154935093509350935090919293565b600080600d60020160000160009054906101000a9004600f0b600d60020160000160109054906101000a9004600f0b915091509091565b6000600860020160109054906101000a900460010b905090565b6000600260003373ffffffffffffffffffffffffffffffffffffffff1673ffffffffffffffffffffffffffffffffffffffff16815260200190815260200160002060000160009054906101000a9004600f0b9050600081600f0b13611f71576040517f08c379a0000000000000000000000000000000000000000000000000000000008152600401611f68906143b0565b60405180910390fd5b600760009054906101000a900460ff1661201557600260003373ffffffffffffffffffffffffffffffffffffffff1673ffffffffffffffffffffffffffffffffffffffff16815260200190815260200160002060000160109054906101000a900460ff16612014576040517f08c379a000000000000000000000000000000000000000000000000000000000815260040161200b9061441c565b60405180910390fd5b5b6000600260003373ffffffffffffffffffffffffffffffffffffffff1673ffffffffffffffffffffffffffffffffffffffff16815260200190815260200160002060000160006101000a8154816fffffffffffffffffffffffffffffffff0219169083600f0b6fffffffffffffffffffffffffffffffff1602179055506001600260003373ffffffffffffffffffffffffffffffffffffffff1673ffffffffffffffffffffffffffffffffffffffff16815260200190815260200160002060000160106101000a81548160ff02191690831515021790555080600360009054906101000a9004600f0b612108919061413f565b600360006101000a8154816fffffffffffffffffffffffffffffffff0219169083600f0b6fffffffffffffffffffffffffffffffff1602179055506000816fffffffffffffffffffffffffffffffff16905060008054906101000a900473ffffffffffffffffffffffffffffffffffffffff1673ffffffffffffffffffffffffffffffffffffffff1663a9059cbb33836040518363ffffffff1660e01b81526004016121b5929190614018565b6020604051808303816000875af11580156121d4573d6000803e3d6000fd5b505050506040513d601f19601f820116820180604052508101906121f89190613808565b612237576040517f08c379a000000000000000000000000000000000000000000000000000000000815260040161222e90614488565b60405180910390fd5b5050565b6000600760029054906101000a900460ff16905090565b6000600c60009054906101000a900460ff16905090565b600760009054906101000a900460ff161580156122935750600760019054906101000a900460ff16155b80156122a3575060086003015442115b80156122b0575060065442105b6122ef576040517f08c379a00000000000000000000000000000000000000000000000000000000081526004016122e6906144f4565b60405180910390fd5b600760029054906101000a900460ff1661233e576040517f08c379a000000000000000000000000000000000000000000000000000000000815260040161233590614560565b60405180910390fd5b6000600260003373ffffffffffffffffffffffffffffffffffffffff1673ffffffffffffffffffffffffffffffffffffffff16815260200190815260200160002060000160009054906101000a9004600f0b600f0b1380156123ed5750600260003373ffffffffffffffffffffffffffffffffffffffff1673ffffffffffffffffffffffffffffffffffffffff16815260200190815260200160002060000160109054906101000a900460ff16155b61242c576040517f08c379a0000000000000000000000000000000000000000000000000000000008152600401612423906145cc565b60405180910390fd5b6000600860020160109054906101000a900460010b905060008160010b0361250e57600260003373ffffffffffffffffffffffffffffffffffffffff1673ffffffffffffffffffffffffffffffffffffffff16815260200190815260200160002060020160000160009054906101000a900460ff16156124ab57600080fd5b6001600260003373ffffffffffffffffffffffffffffffffffffffff1673ffffffffffffffffffffffffffffffffffffffff16815260200190815260200160002060020160000160006101000a81548160ff0219169083151502179055506127b0565b60018160010b036125d957600260003373ffffffffffffffffffffffffffffffffffffffff1673ffffffffffffffffffffffffffffffffffffffff16815260200190815260200160002060020160000160019054906101000a900460ff161561257657600080fd5b6001600260003373ffffffffffffffffffffffffffffffffffffffff1673ffffffffffffffffffffffffffffffffffffffff16815260200190815260200160002060020160000160016101000a81548160ff0219169083151502179055506127af565b60028160010b036126a457600260003373ffffffffffffffffffffffffffffffffffffffff1673ffffffffffffffffffffffffffffffffffffffff16815260200190815260200160002060020160000160029054906101000a900460ff161561264157600080fd5b6001600260003373ffffffffffffffffffffffffffffffffffffffff1673ffffffffffffffffffffffffffffffffffffffff16815260200190815260200160002060020160000160026101000a81548160ff0219169083151502179055506127ae565b60038160010b0361276f57600260003373ffffffffffffffffffffffffffffffffffffffff1673ffffffffffffffffffffffffffffffffffffffff16815260200190815260200160002060020160000160039054906101000a900460ff161561270c57600080fd5b6001600260003373ffffffffffffffffffffffffffffffffffffffff1673ffffffffffffffffffffffffffffffffffffffff16815260200190815260200160002060020160000160036101000a81548160ff0219169083151502179055506127ad565b60046040517fbf21f0490000000000000000000000000000000000000000000000000000000081526004016127a4919061467d565b60405180910390fd5b5b5b5b600060028111156127c4576127c36132c9565b5b8260028111156127d7576127d66132c9565b5b03612950576001600860000160008282829054906101000a9004600f0b6127fe91906138d0565b92506101000a8154816fffffffffffffffffffffffffffffffff0219169083600f0b6fffffffffffffffffffffffffffffffff160217905550600860020160009054906101000a9004600f0b600f0b600860000160009054906101000a9004600f0b600f0b13156128e9576000600860010160106101000a81548160ff02191690836002811115612892576128916132c9565b5b0217905550600860000160009054906101000a9004600f0b600860020160006101000a8154816fffffffffffffffffffffffffffffffff0219169083600f0b6fffffffffffffffffffffffffffffffff1602179055505b3373ffffffffffffffffffffffffffffffffffffffff167f3f844ea40639efeecccf4b697406cc39d2b12161a28a198044926157f6244f1c83600860000160009054906101000a9004600f0b6040516129439291906146ab565b60405180910390a2612d2a565b60016002811115612964576129636132c9565b5b826002811115612977576129766132c9565b5b03612b4b576001600860000160108282829054906101000a9004600f0b61299e91906138d0565b92506101000a8154816fffffffffffffffffffffffffffffffff0219169083600f0b6fffffffffffffffffffffffffffffffff160217905550600860020160009054906101000a9004600f0b600f0b600860000160109054906101000a9004600f0b600f0b1315612a89576001600860010160106101000a81548160ff02191690836002811115612a3257612a316132c9565b5b0217905550600860000160109054906101000a9004600f0b600860020160006101000a8154816fffffffffffffffffffffffffffffffff0219169083600f0b6fffffffffffffffffffffffffffffffff1602179055505b6001600260003373ffffffffffffffffffffffffffffffffffffffff1673ffffffffffffffffffffffffffffffffffffffff16815260200190815260200160002060000160106101000a81548160ff0219169083151502179055503373ffffffffffffffffffffffffffffffffffffffff167f3f844ea40639efeecccf4b697406cc39d2b12161a28a198044926157f6244f1c83600860000160109054906101000a9004600f0b604051612b3e9291906146ab565b60405180910390a2612d29565b600280811115612b5e57612b5d6132c9565b5b826002811115612b7157612b706132c9565b5b03612cea576001600860010160008282829054906101000a9004600f0b612b9891906138d0565b92506101000a8154816fffffffffffffffffffffffffffffffff0219169083600f0b6fffffffffffffffffffffffffffffffff160217905550600860020160009054906101000a9004600f0b600f0b600860010160009054906101000a9004600f0b600f0b1315612c83576002600860010160106101000a81548160ff02191690836002811115612c2c57612c2b6132c9565b5b0217905550600860010160009054906101000a9004600f0b600860020160006101000a8154816fffffffffffffffffffffffffffffffff0219169083600f0b6fffffffffffffffffffffffffffffffff1602179055505b3373ffffffffffffffffffffffffffffffffffffffff167f3f844ea40639efeecccf4b697406cc39d2b12161a28a198044926157f6244f1c83600860010160009054906101000a9004600f0b604051612cdd9291906146ab565b60405180910390a2612d28565b60016040517fbf21f049000000000000000000000000000000000000000000000000000000008152600401612d1f919061475b565b60405180910390fd5b5b5b5050565b6000806000806000600860000160009054906101000a9004600f0b600860000160109054906101000a9004600f0b600860010160009054906101000a9004600f0b600860020160109054906101000a900460010b600860030154945094509450945094509091929394565b6003600860020160109054906101000a900460010b60010b12612dd6576001600760006101000a81548160ff0219169083151502179055506130b6565b600080600860020160109054906101000a900460010b60010b03612e16576064604b600454612e059190614789565b612e0f91906147cb565b9050612e92565b6001600860020160109054906101000a900460010b60010b03612e555760646032600454612e449190614789565b612e4e91906147cb565b9050612e91565b6002600860020160109054906101000a900460010b60010b03612e905760646019600454612e839190614789565b612e8d91906147cb565b90505b5b5b6001600860020160108282829054906101000a900460010b612eb49190613e7a565b92506101000a81548161ffff021916908360010b61ffff1602179055508060066000828254612ee39190613ab0565b925050819055506064601482612ef99190614789565b612f0391906147cb565b600654612f109190613a7c565b6008600301819055506001600c60006101000a81548160ff0219169083151502179055506000600760026101000a81548160ff0219169083151502179055506000600860000160106101000a8154816fffffffffffffffffffffffffffffffff0219169083600f0b6fffffffffffffffffffffffffffffffff1602179055506000600860000160006101000a8154816fffffffffffffffffffffffffffffffff0219169083600f0b6fffffffffffffffffffffffffffffffff1602179055506000600860010160006101000a8154816fffffffffffffffffffffffffffffffff0219169083600f0b6fffffffffffffffffffffffffffffffff1602179055506002600860010160106101000a81548160ff02191690836002811115613038576130376132c9565b5b02179055506000600860020160006101000a8154816fffffffffffffffffffffffffffffffff0219169083600f0b6fffffffffffffffffffffffffffffffff1602179055507fd6c41d9f8821c65b60d31649f0f98823a25961f63de772dd38772dddc6c20a49816040516130ac91906147fc565b60405180910390a1505b565b600081600f0b9050919050565b6130ce816130b8565b82525050565b60006020820190506130e960008301846130c5565b92915050565b600080fd5b6000819050919050565b613107816130f4565b811461311257600080fd5b50565b600081359050613124816130fe565b92915050565b600060ff82169050919050565b6131408161312a565b811461314b57600080fd5b50565b60008135905061315d81613137565b92915050565b6000819050919050565b61317681613163565b811461318157600080fd5b50565b6000813590506131938161316d565b92915050565b600080600080600060a086880312156131b5576131b46130ef565b5b60006131c388828901613115565b95505060206131d488828901613115565b94505060406131e58882890161314e565b93505060606131f688828901613184565b925050608061320788828901613184565b9150509295509295909350565b61321d816130b8565b811461322857600080fd5b50565b60008135905061323a81613214565b92915050565b600060208284031215613256576132556130ef565b5b60006132648482850161322b565b91505092915050565b600073ffffffffffffffffffffffffffffffffffffffff82169050919050565b60006132988261326d565b9050919050565b6132a88161328d565b82525050565b60006020820190506132c3600083018461329f565b92915050565b7f4e487b7100000000000000000000000000000000000000000000000000000000600052602160045260246000fd5b60038110613309576133086132c9565b5b50565b600081905061331a826132f8565b919050565b600061332a8261330c565b9050919050565b61333a8161331f565b82525050565b60006020820190506133556000830184613331565b92915050565b60008115159050919050565b6133708161335b565b82525050565b600060208201905061338b6000830184613367565b92915050565b61339a8161328d565b81146133a557600080fd5b50565b6000813590506133b781613391565b92915050565b6000602082840312156133d3576133d26130ef565b5b60006133e1848285016133a8565b91505092915050565b60008060408385031215613401576134006130ef565b5b600061340f8582860161322b565b9250506020613420858286016133a8565b9150509250929050565b60008060408385031215613441576134406130ef565b5b600061344f8582860161322b565b92505060206134608582860161322b565b9150509250929050565b613473816130f4565b82525050565b600060808201905061348e600083018761346a565b61349b602083018661346a565b6134a8604083018561346a565b6134b5606083018461346a565b95945050505050565b60006040820190506134d360008301856130c5565b6134e060208301846130c5565b9392505050565b60008160010b9050919050565b6134fd816134e7565b82525050565b600060208201905061351860008301846134f4565b92915050565b6003811061352b57600080fd5b50565b60008135905061353d8161351e565b92915050565b600060208284031215613559576135586130ef565b5b60006135678482850161352e565b91505092915050565b600060a08201905061358560008301886130c5565b61359260208301876130c5565b61359f60408301866130c5565b6135ac60608301856134f4565b6135b9608083018461346a565b9695505050505050565b600082825260208201905092915050565b7f5374616b696e67206e6f74206163746976650000000000000000000000000000600082015250565b600061360a6012836135c3565b9150613615826135d4565b602082019050919050565b60006020820190508181036000830152613639816135fd565b9050919050565b7f4d757374207374616b65206d6f7265207468616e203020746f6b656e732e0000600082015250565b6000613676601e836135c3565b915061368182613640565b602082019050919050565b600060208201905081810360008301526136a581613669565b9050919050565b7f5374616b6520616c72656164792063616e63656c656400000000000000000000600082015250565b60006136e26016836135c3565b91506136ed826136ac565b602082019050919050565b60006020820190508181036000830152613711816136d5565b9050919050565b6137218161312a565b82525050565b61373081613163565b82525050565b600060e08201905061374b600083018a61329f565b613758602083018961329f565b613765604083018861346a565b613772606083018761346a565b61377f6080830186613718565b61378c60a0830185613727565b61379960c0830184613727565b98975050505050505050565b60006060820190506137ba600083018661329f565b6137c7602083018561329f565b6137d4604083018461346a565b949350505050565b6137e58161335b565b81146137f057600080fd5b50565b600081519050613802816137dc565b92915050565b60006020828403121561381e5761381d6130ef565b5b600061382c848285016137f3565b91505092915050565b7f546f6b656e207472616e73666572206661696c65640000000000000000000000600082015250565b600061386b6015836135c3565b915061387682613835565b602082019050919050565b6000602082019050818103600083015261389a8161385e565b9050919050565b7f4e487b7100000000000000000000000000000000000000000000000000000000600052601160045260246000fd5b60006138db826130b8565b91506138e6836130b8565b925082820190507fffffffffffffffffffffffffffffffff8000000000000000000000000000000081126f7fffffffffffffffffffffffffffffff82131715613932576139316138a1565b5b92915050565b7f50726f706f73616c20766f74696e67206e6f74206163746976652e0000000000600082015250565b600061396e601b836135c3565b915061397982613938565b602082019050919050565b6000602082019050818103600083015261399d81613961565b9050919050565b7f4d75737420686176652061207374616b6520696e2074686520696465612e0000600082015250565b60006139da601e836135c3565b91506139e5826139a4565b602082019050919050565b60006020820190508181036000830152613a09816139cd565b9050919050565b7f50726f706f73616c20616c7265616479206578697374732e0000000000000000600082015250565b6000613a466018836135c3565b9150613a5182613a10565b602082019050919050565b60006020820190508181036000830152613a7581613a39565b9050919050565b6000613a87826130f4565b9150613a92836130f4565b9250828203905081811115613aaa57613aa96138a1565b5b92915050565b6000613abb826130f4565b9150613ac6836130f4565b9250828201905080821115613ade57613add6138a1565b5b92915050565b7f4e487b7100000000000000000000000000000000000000000000000000000000600052603260045260246000fd5b7f4e6f206163746976652073746174757320766f74652e00000000000000000000600082015250565b6000613b496016836135c3565b9150613b5482613b13565b602082019050919050565b60006020820190508181036000830152613b7881613b3c565b9050919050565b7f53746174757320766f7465207374696c6c206f6e676f696e672e000000000000600082015250565b6000613bb5601a836135c3565b9150613bc082613b7f565b602082019050919050565b60006020820190508181036000830152613be481613ba8565b9050919050565b6000604082019050613c006000830185613331565b613c0d602083018461346a565b9392505050565b6000613c1f826130b8565b9150613c2a836130b8565b9250828202613c38816130b8565b9150808214613c4a57613c496138a1565b5b5092915050565b7f4e487b7100000000000000000000000000000000000000000000000000000000600052601260045260246000fd5b6000613c8b826130b8565b9150613c96836130b8565b925082613ca657613ca5613c51565b5b600160000383147fffffffffffffffffffffffffffffffff8000000000000000000000000000000083141615613cdf57613cde6138a1565b5b828205905092915050565b7f43616e6e6f74206372656174652053746174757320566f74652e000000000000600082015250565b6000613d20601a836135c3565b9150613d2b82613cea565b602082019050919050565b60006020820190508181036000830152613d4f81613d13565b9050919050565b7f4d75737420686176652061207374616b6520746f20737461727420737461747560008201527f7320766f74652e00000000000000000000000000000000000000000000000000602082015250565b6000613db26027836135c3565b9150613dbd82613d56565b604082019050919050565b60006020820190508181036000830152613de181613da5565b9050919050565b7f57616974206265666f7265207374617274696e672053746174757320566f746560008201527f2e00000000000000000000000000000000000000000000000000000000000000602082015250565b6000613e446021836135c3565b9150613e4f82613de8565b604082019050919050565b60006020820190508181036000830152613e7381613e37565b9050919050565b6000613e85826134e7565b9150613e90836134e7565b925082820190507fffffffffffffffffffffffffffffffffffffffffffffffffffffffffffff80008112617fff82131715613ece57613ecd6138a1565b5b92915050565b7f53746174757320766f7465207374617274656400000000000000000000000000600082015250565b6000613f0a6013836135c3565b9150613f1582613ed4565b602082019050919050565b60006020820190508181036000830152613f3981613efd565b9050919050565b7f6f6e6c79206f776e65722063616e2063616c6c20746869732e00000000000000600082015250565b6000613f766019836135c3565b9150613f8182613f40565b602082019050919050565b60006020820190508181036000830152613fa581613f69565b9050919050565b7f69646561206861736e7420656e6465642e000000000000000000000000000000600082015250565b6000613fe26011836135c3565b9150613fed82613fac565b602082019050919050565b6000602082019050818103600083015261401181613fd5565b9050919050565b600060408201905061402d600083018561329f565b61403a602083018461346a565b9392505050565b7f5472616e7366657220746f206f776e6572206661696c65640000000000000000600082015250565b60006140776018836135c3565b915061408282614041565b602082019050919050565b600060208201905081810360008301526140a68161406a565b9050919050565b7f50726f706f73616c20646f6573206e6f7420657869737420776974682074686160008201527f742049442e000000000000000000000000000000000000000000000000000000602082015250565b60006141096025836135c3565b9150614114826140ad565b604082019050919050565b60006020820190508181036000830152614138816140fc565b9050919050565b600061414a826130b8565b9150614155836130b8565b925082820390506f7fffffffffffffffffffffffffffffff81137fffffffffffffffffffffffffffffffff80000000000000000000000000000000821217156141a1576141a06138a1565b5b92915050565b7f50726f706f73616c20646f6573206e6f742065786973742e0000000000000000600082015250565b60006141dd6018836135c3565b91506141e8826141a7565b602082019050919050565b6000602082019050818103600083015261420c816141d0565b9050919050565b7f546f6b656e20766f74652065786365656473207374616b656420616d6f756e7460008201527f2e00000000000000000000000000000000000000000000000000000000000000602082015250565b600061426f6021836135c3565b915061427a82614213565b604082019050919050565b6000604082019050818103600083015261429e81614262565b90506142ad60208301846130c5565b92915050565b7f546f6b656e20766f74652062656c6f7720302e00000000000000000000000000600082015250565b60006142e96013836135c3565b91506142f4826142b3565b602082019050919050565b60006040820190508181036000830152614318816142dc565b905061432760208301846130c5565b92915050565b6000606082019050614342600083018661329f565b61434f60208301856130c5565b61435c60408301846130c5565b949350505050565b7f4e6f207374616b6520746f207769746864726177000000000000000000000000600082015250565b600061439a6014836135c3565b91506143a582614364565b602082019050919050565b600060208201905081810360008301526143c98161438d565b9050919050565b7f4e6f7420656c696769626c6520666f72207769746864726177616c0000000000600082015250565b6000614406601b836135c3565b9150614411826143d0565b602082019050919050565b60006020820190508181036000830152614435816143f9565b9050919050565b7f5472616e73666572206661696c65640000000000000000000000000000000000600082015250565b6000614472600f836135c3565b915061447d8261443c565b602082019050919050565b600060208201905081810360008301526144a181614465565b9050919050565b7f43616e6e6f7420766f7465206f6e2053746174757320566f74652e0000000000600082015250565b60006144de601b836135c3565b91506144e9826144a8565b602082019050919050565b6000602082019050818103600083015261450d816144d1565b9050919050565b7f506c65617365207374617274207468652073746174757320766f74652e000000600082015250565b600061454a601d836135c3565b915061455582614514565b602082019050919050565b600060208201905081810360008301526145798161453d565b9050919050565b7f4d7573742068617665207374616b6520746f20766f7465000000000000000000600082015250565b60006145b66017836135c3565b91506145c182614580565b602082019050919050565b600060208201905081810360008301526145e5816145a9565b9050919050565b7f496e76616c696420766f746520706572696f6400000000000000000000000000600082015250565b60006146226013836135c3565b915061462d826145ec565b602082019050919050565b6000819050919050565b6000819050919050565b600061466761466261465d84614638565b614642565b6130b8565b9050919050565b6146778161464c565b82525050565b6000604082019050818103600083015261469681614615565b90506146a5602083018461466e565b92915050565b60006040820190506146c06000830185613331565b6146cd60208301846130c5565b9392505050565b7f496e76616c696420766f7465206f70696f6e0000000000000000000000000000600082015250565b600061470a6012836135c3565b9150614715826146d4565b602082019050919050565b6000819050919050565b600061474561474061473b84614720565b614642565b6130b8565b9050919050565b6147558161472a565b82525050565b60006040820190508181036000830152614774816146fd565b9050614783602083018461474c565b92915050565b6000614794826130f4565b915061479f836130f4565b92508282026147ad816130f4565b915082820484148315176147c4576147c36138a1565b5b5092915050565b60006147d6826130f4565b91506147e1836130f4565b9250826147f1576147f0613c51565b5b828204905092915050565b6000602082019050614811600083018461346a565b9291505056fea26469706673582212206343ee241d4e226ac41555f03ed80c3b75234611557ae2e34228d6fa9fc3748b64736f6c634300081c0033",
  "linkReferences": {},
  "deployedLinkReferences": {}
}