{
  "_format": "hh-sol-artifact-1",
  "contractName": "Treasury",
  "sourceName": "contracts/Treasury.sol",
  "abi": [
    {
      "inputs": [],
      "stateMutability": "nonpayable",
      "type": "constructor"
    },
    {
      "inputs": [
        {
          "internalType": "uint256",
          "name": "amount",
          "type": "uint256"
        }
      ],
      "name": "deposit",
      "outputs": [],
      "stateMutability": "nonpayable",
      "type": "function"
    },
    {
      "inputs": [],
      "name": "ideaToken",
      "outputs": [
        {
          "internalType": "contract IdeaToken",
          "name": "",
          "type": "address"
        }
      ],
      "stateMutability": "view",
      "type": "function"
    },
    {
      "inputs": [],
      "name": "owner",
      "outputs": [
        {
          "internalType": "address",
          "name": "",
          "type": "address"
        }
      ],
      "stateMutability": "view",
      "type": "function"
    },
    {
      "inputs": [
        {
          "internalType": "contract IdeaToken",
          "name": "_ideaToken",
          "type": "address"
        }
      ],
      "name": "setToken",
      "outputs": [],
      "stateMutability": "nonpayable",
      "type": "function"
    },
    {
      "inputs": [
        {
          "internalType": "uint256",
          "name": "amount",
          "type": "uint256"
        },
        {
          "internalType": "address",
          "name": "destination",
          "type": "address"
        }
      ],
      "name": "withdraw",
      "outputs": [],
      "stateMutability": "nonpayable",
      "type": "function"
    }
  ],
  "bytecode": "0x6080604052348015600f57600080fd5b5033600160006101000a81548173ffffffffffffffffffffffffffffffffffffffff021916908373ffffffffffffffffffffffffffffffffffffffff160217905550610ac4806100606000396000f3fe608060405234801561001057600080fd5b50600436106100565760003560e01c8062f714ce1461005b5780630161fe3214610077578063144fa6d7146100955780638da5cb5b146100b1578063b6b55f25146100cf575b600080fd5b61007560048036038101906100709190610611565b6100eb565b005b61007f61025b565b60405161008c91906106b0565b60405180910390f35b6100af60048036038101906100aa9190610709565b61027f565b005b6100b96103e1565b6040516100c69190610745565b60405180910390f35b6100e960048036038101906100e49190610760565b610407565b005b600073ffffffffffffffffffffffffffffffffffffffff1660008054906101000a900473ffffffffffffffffffffffffffffffffffffffff1673ffffffffffffffffffffffffffffffffffffffff160361017a576040517f08c379a0000000000000000000000000000000000000000000000000000000008152600401610171906107ea565b60405180910390fd5b60008054906101000a900473ffffffffffffffffffffffffffffffffffffffff1673ffffffffffffffffffffffffffffffffffffffff1663a9059cbb82846040518363ffffffff1660e01b81526004016101d5929190610819565b6020604051808303816000875af11580156101f4573d6000803e3d6000fd5b505050506040513d601f19601f82011682018060405250810190610218919061087a565b610257576040517f08c379a000000000000000000000000000000000000000000000000000000000815260040161024e906108f3565b60405180910390fd5b5050565b60008054906101000a900473ffffffffffffffffffffffffffffffffffffffff1681565b600160009054906101000a900473ffffffffffffffffffffffffffffffffffffffff1673ffffffffffffffffffffffffffffffffffffffff163373ffffffffffffffffffffffffffffffffffffffff161461030f576040517f08c379a00000000000000000000000000000000000000000000000000000000081526004016103069061095f565b60405180910390fd5b600073ffffffffffffffffffffffffffffffffffffffff1660008054906101000a900473ffffffffffffffffffffffffffffffffffffffff1673ffffffffffffffffffffffffffffffffffffffff161461039e576040517f08c379a0000000000000000000000000000000000000000000000000000000008152600401610395906109cb565b60405180910390fd5b806000806101000a81548173ffffffffffffffffffffffffffffffffffffffff021916908373ffffffffffffffffffffffffffffffffffffffff16021790555050565b600160009054906101000a900473ffffffffffffffffffffffffffffffffffffffff1681565b600073ffffffffffffffffffffffffffffffffffffffff1660008054906101000a900473ffffffffffffffffffffffffffffffffffffffff1673ffffffffffffffffffffffffffffffffffffffff1603610496576040517f08c379a000000000000000000000000000000000000000000000000000000000815260040161048d906107ea565b60405180910390fd5b60008054906101000a900473ffffffffffffffffffffffffffffffffffffffff1673ffffffffffffffffffffffffffffffffffffffff166323b872dd3330846040518463ffffffff1660e01b81526004016104f3939291906109eb565b6020604051808303816000875af1158015610512573d6000803e3d6000fd5b505050506040513d601f19601f82011682018060405250810190610536919061087a565b610575576040517f08c379a000000000000000000000000000000000000000000000000000000000815260040161056c90610a6e565b60405180910390fd5b50565b600080fd5b6000819050919050565b6105908161057d565b811461059b57600080fd5b50565b6000813590506105ad81610587565b92915050565b600073ffffffffffffffffffffffffffffffffffffffff82169050919050565b60006105de826105b3565b9050919050565b6105ee816105d3565b81146105f957600080fd5b50565b60008135905061060b816105e5565b92915050565b6000806040838503121561062857610627610578565b5b60006106368582860161059e565b9250506020610647858286016105fc565b9150509250929050565b6000819050919050565b600061067661067161066c846105b3565b610651565b6105b3565b9050919050565b60006106888261065b565b9050919050565b600061069a8261067d565b9050919050565b6106aa8161068f565b82525050565b60006020820190506106c560008301846106a1565b92915050565b60006106d6826105d3565b9050919050565b6106e6816106cb565b81146106f157600080fd5b50565b600081359050610703816106dd565b92915050565b60006020828403121561071f5761071e610578565b5b600061072d848285016106f4565b91505092915050565b61073f816105d3565b82525050565b600060208201905061075a6000830184610736565b92915050565b60006020828403121561077657610775610578565b5b60006107848482850161059e565b91505092915050565b600082825260208201905092915050565b7f546f6b656e206e6f742073657400000000000000000000000000000000000000600082015250565b60006107d4600d8361078d565b91506107df8261079e565b602082019050919050565b60006020820190508181036000830152610803816107c7565b9050919050565b6108138161057d565b82525050565b600060408201905061082e6000830185610736565b61083b602083018461080a565b9392505050565b60008115159050919050565b61085781610842565b811461086257600080fd5b50565b6000815190506108748161084e565b92915050565b6000602082840312156108905761088f610578565b5b600061089e84828501610865565b91505092915050565b7f54726561737572793a207769746864726177616c206661696c65640000000000600082015250565b60006108dd601b8361078d565b91506108e8826108a7565b602082019050919050565b6000602082019050818103600083015261090c816108d0565b9050919050565b7f4f6e6c79206f776e65722063616e2073657420746f6b656e0000000000000000600082015250565b600061094960188361078d565b915061095482610913565b602082019050919050565b600060208201905081810360008301526109788161093c565b9050919050565b7f546f6b656e20616c726561647920736574000000000000000000000000000000600082015250565b60006109b560118361078d565b91506109c08261097f565b602082019050919050565b600060208201905081810360008301526109e4816109a8565b9050919050565b6000606082019050610a006000830186610736565b610a0d6020830185610736565b610a1a604083018461080a565b949350505050565b7f54726561737572793a206465706f736974206661696c65640000000000000000600082015250565b6000610a5860188361078d565b9150610a6382610a22565b602082019050919050565b60006020820190508181036000830152610a8781610a4b565b905091905056fea2646970667358221220826bfe5d9aebbbe905eed739162fb4c4bc5364a4acf0f4f84a083cd6fad64b5f64736f6c634300081c0033",
  "linkReferences": {},
  "deployedLinkReferences": {}
}